:020000041000EA
:1000000000B5324B212058609868022188439860DF
:10001000D860186158612E4B002199600221596106
:100020000121F02299502B49196001219960352056
:1000300000F044F80222904214D00621196600F024
:1000400034F8196E01211966002018661A6600F04E
:100050002CF8196E196E196E052000F02FF8012189
:100060000842F9D1002199601B49196000215960AB
:100070001A491B48016001219960EB211966A021F2
:10008000196600F012F800219960164914480160C1
:100090000121996001BC002800D000471248134993
:1000A000086003C880F30888084703B5996A0420EC
:1000B0000142FBD001200142F8D103BD02B5186610
:1000C0001866FFF7F2FF186E186E02BD00000240BE
:1000D000000000180000070000035F00212200005C
:1000E000F4000018222000A00001001008ED00E03C
:1000F00000000000000000000000000074B24E7A12
:1001000000200420F7010010C3010010C5010010F9
:10011000C1010010C1010010C1010010C101001097
:10012000C1010010C1010010C1010010C701001081
:10013000C1010010C1010010C9010010CB01001065
:10014000CD010010CD010010CD010010CD01001037
:10015000CD010010CD010010CD010010CD01001027
:10016000CD010010CD010010CD010010CD01001017
:10017000CD010010CD010010CD010010CD01001007
:10018000CD010010CD010010CD010010CD010010F7
:10019000CD010010CD010010CD010010CD010010E7
:1001A000CD010010CD010010CD010010CD010010D7
:1001B000CD010010CD010010CD010010CD010010C7
:1001C00000BE00BE00BE00BE00BE00BEEFF3058054
:1001D000103800BEF2EB8871445904106C590410B9
:1001E0003802001090A31AE71E481F49086006C88D
:1001F00081F3088810471D480068002801D019487D
:10020000F3E70DA40ECC002902D000F012F8F9E7B4
:100210001749184A002000E001C19142FCD116495B
:100220008847164988471649884700BEFDE701C937
:1002300001C29A42FBD370476C590410C0000020E1
:10024000E80E002094670410000004200000042041
:100250009467041000100420001004200000000027
:10026000704700000000000008ED00E0000000D032
:10027000E80E002094210220CD3800104503001024
:1002800089380010F8B5C0460448054B10B58342C4
:1002900003D0044B002B00D0984710BDE80E00207F
:1002A000E80E00200000000006480749091A8B10DC
:1002B000C90FC91810B5491003D0044B002B00D04A
:1002C000984710BDE80E0020E80E00200000000056
:1002D00010B5074C2378002B09D1FFF7D5FF054B4C
:1002E000002B02D0044800E000BF0123237010BDA2
:1002F000B810002000000000F8B20010054B10B547
:10030000002B03D00449054800E000BFFFF7CCFFF5
:1003100010BDC04600000000BC100020F8B2001064
:1003200010B50121002003F04DFDFA24A4002000A7
:1003300009F0D6FD0021002003F044FD200009F063
:10034000CFFDEEE700B583B003F0DEFB03F06EFDFA
:1003500000280CD1802200230193012100918A40C2
:100360000649074809F030FC09F08EFCFEE7054815
:1003700003F0CFFB0120404203B000BD0CB30010DE
:1003800021030010F8B2001010B58300084A9A1833
:10039000126840245440C0222240064CA4466344C4
:1003A0001A60C000044B9C466044416010BDC046CA
:1003B00004C0014004D001400040014080000C4BCB
:1003C0009C46604400290ED00823002A0DD0042248
:1003D0001343026853400C2213408022520194467A
:1003E0006044036070470023EFE70022F0E7C04657
:1003F00004C00140002906D08000064B9C466044A2
:100400000223036070478000034B9C466044022334
:100410000360F7E704E0014004F0014070B5D02329
:100420001B061B689D00094C2C59204207D19B00DC
:100430002043064C18510D2000F02EFA70BD044BDD
:10044000044ADB21044803F023FAC046301500209B
:1004500018B3001000B4001044B3001010B504002D
:10046000D0231B061B689B000A4A9B5818420BD0DE
:100470000D2000F02DFBD0231B061B6805499B00B7
:100480005A58A2435A5010BD034B044AEF21044866
:1004900003F0FEF93015002090B3001034B40010C2
:1004A00044B30010072303409B00C00899403C3030
:1004B0008000014BC150704700400140F8B5070073
:1004C0000D0016001C00FFF7EDFFFB089B00E41871
:1004D0000720384080008540002E05D080239B01F6
:1004E0009C4664442560F8BDC0239B019C4664443F
:1004F0002560F8E770B506000D00141E0BD1D0235F
:100500001B061B68002B11D0094B2200290030006C
:10051000FFF7D4FF70BD0D2000F084F90028EED164
:10052000044B054ABD21054803F0B2F9044BECE742
:1005300030410140BCB30010E8B3001044B30010D8
:100540000041014010B501238340D022120693627E
:1005500093610521FFF718FF10BD00000FB400B52F
:1005600083B0084803F0D5FA049B002B07D005A9F7
:100570000191180003F0DCFA034803F0CAFA0120E5
:1005800003F064F958B400104CC6001010B50148CF
:10059000FFF7E4FF68B40010EFF3108072B6034B6E
:1005A0001B68002BFBD0BFF35F8F70472C0100D07E
:1005B000BFF35F8F024B00221A6080F310887047F0
:1005C0002C0100D0F8B506000C001500FFF7E4FF81
:1005D000E308F718F15C07222240012393400B4205
:1005E00005D1DBB20B433B70FFF7E2FFF8BD210002
:1005F0002800FFF7B3FFF0B583B0060001911400A7
:100600001F00FFF7C9FFBC420ED8E308F518F35CE2
:100610000721214001228A401A4201D00134F2E729
:10062000D2B21A432A7001E001246442FFF7C0FFEE
:10063000002C02DB200003B0F0BD019B002BF9D0A1
:100640000898FFF78BFF000070B505000C00FFF75E
:10065000A3FFE308EE18EA5C07210C400123A34046
:10066000134204D09A433270FFF7A2FF70BD034BD0
:10067000034A2C31034803F00BF9C04678B400104C
:10068000E0B4001098B40010054A1078431CDBB2A7
:100690001370172B02D9130010221A707047C0462E
:1006A000C805002010B50100024A0348FFF78AFF81
:1006B00010BDC046F0B400104412002000231F2BD0
:1006C00008D8054A9A189200BFF35F8F0021116085
:1006D0000133F4E77047C04640000034074B9B6885
:1006E000103080001950BFF35F8FBFF35F8F044B52
:1006F0000021196082F310887047C04600ED00E0C9
:10070000240100D00048704700E400E010B5FFF776
:10071000F9FF002302E0034A04C00133072BFAD992
:1007200010BDC046808080801F23181A70470000CB
:1007300010B5091A0B1F0B4A944661440A4A9142AC
:1007400008D8DA0706D45B105B055B0D0748184331
:1007500080B210BD0821064B064AFF31064803F05F
:1007600097F8C046FC070000FE0F000000E0FFFF06
:1007700010B500106CB7001040B5001010B5091A84
:1007800004394C08090B08D14905490D064A1143A3
:100790000180064B2343438010BD1021044B054AC2
:1007A000FF31054803F074F800F0FFFF00F8FFFF89
:1007B00088B5001078B7001040B5001001238340C1
:1007C000034A10681840431E9841C0B27047C046A3
:1007D00000E100E0002A05D0044BC02252009950ED
:1007E00019607047014A8023D150FAE700E100E028
:1007F00010B50A001F230340012199404009FFF76B
:10080000E9FF10BD01238340014A13607047C046D1
:1008100000E200E0024B9B6810308000C058704737
:1008200000ED00E010B5FFF7F5FF002806D0044BFF
:10083000984201D0012010BD0020FCE70020FAE71B
:10084000CD01001070B504000D00EFF3108672B6F4
:100850000C4B1B68002BFBD0BFF35F8F2000FFF712
:10086000D9FF094B984201D0A84205D13200290096
:100870002000FFF733FF70BD044B054AE721054810
:1008800003F006F8240100D0CD01001098B5001047
:1008900050B7001040B50010F0B5DE4657464E4642
:1008A0004546E0B589B0814601911500EFF3108B04
:1008B00072B6754B1B68002BFBD0BFF35F8F734B79
:1008C0000027DF57002F3FDB7C00E419A4007048AD
:1008D00024180622A2566D4B1A706E4B9A684B462E
:1008E00010339B00D35898461B1A2F2B3AD96A4BCA
:1008F000984530D105AE694B33807B009A46D819B4
:100900008000634B9846404402306549FFF710FF72
:100910007080644BB380FF23B371F571019BB360AA
:100920005744BF0047440ECE0EC701231C43A046C8
:100930005A4641464846FFF7D1FE09B03CBC9046B6
:100940009946A246AB46F0BD7421574B574AFF313A
:10095000574802F09DFFBD21564B544A4900544868
:1009600002F096FF012342469A439246101A0C2148
:1009700001F074FA00290FD153460026DA79AA4211
:1009800012D90621595600290DDB4A00521892004F
:100990001E003F4B9B18F1E78C21474B434AFF3128
:1009A000434802F075FF1E00002E3BD005AB434AC2
:1009B0001A80813A5A800623F3560293002B17DAE5
:1009C0003F4805AB9A469880029A9A71DD71019A68
:1009D0000792301D2100FFF7ABFEB080B7717B009E
:1009E000DB199B002A4FFF18534607CB07C79FE729
:1009F0007800C0198000264BC0180430321DB3881F
:100A0000D90A1C2907D15905491502314900511845
:100A1000FFF78EFED5E716212A4B2B4AFF312448DB
:100A200002F036FF05AE1D4B33807B000293D819D0
:100A30008000174A9046020042440392901C1849D5
:100A4000FFF776FE7080039A101D5146FFF770FE87
:100A5000B0801E4B52464146521A524153431B0D21
:100A6000B371F571019AB260029B9C466744BF0066
:100A700047440ECE0EC7114B52461380813B538024
:100A800001231C43A04653E7240100D04D16022049
:100A9000CC05002000ED00E0CD01001000A1FFFF1B
:100AA000FC05002001BDFFFFD0B5001098B7001075
:100AB00040B50010F8B5001020B600100148000045
:100AC00001BD0000A4B6001088B70010AAAA00005B
:100AD000F0B5CE46474680B583B006000D00EFF373
:100AE000108872B6564B1B68002BFBD0BFF35F8F8C
:100AF000544B9A6834001034A300D758524B9F428D
:100B000007D0AF4200D198E00197504BFB1A2F2B32
:100B100009D9424639003000FFF7E0FD03B00CBCB4
:100B200090469946F0BD3000FFF748FE814600210F
:100B30003000FFF75DFEBFF35F8FEFF30581002903
:100B400001D08C4211D10123019C9C430022A36857
:100B50009D4212D00622A256002A0DDB53009B189C
:100B60009B002200394CE418F1E7FA21384B394A4E
:100B7000FF31394802F08CFE22009D4257D10625F4
:100B80006557002D39DB6B005B199A002F4B9B18C2
:100B90009A68A260DA79E27106229A56A2719B796C
:100BA0005BB2002B0FDA2D48A0806B005B199B0015
:100BB000264AD3182A4A117899711570494630008F
:100BC000FFF716FEA5E7201D6B005B199B001F4A6F
:100BD0009B181A1D9B88D90A1C2907D1590549154C
:100BE000023149005118FFF7A3FDDDE716211D4B27
:100BF0001D4AFF31184802F04BFE002912D1002A8D
:100C00000ED0FF239371194B9380154A1378A3716B
:100C1000174B0E49641A644163431B0D1370CDE7F3
:100C2000094FF2E7201D1349FFF7A8FDC6E7124B55
:100C3000084A1249084802F02BFE034F69E7C046F4
:100C4000240100D000ED00E0CD010010CC05002013
:100C5000BCB60010B0B7001040B5001001BD0000D8
:100C60004D160220A4B6001088B7001001BDFFFF8A
:100C7000AAAA000006060020F0B600103B02000001
:100C800070B505000C00FFF73DFDAB089B00C018D8
:100C9000016803232B40DB00FF229A4091439C40D4
:100CA0002143016070BD0000F8B5012101432D4BC7
:100CB000CB1A2F2B28D8EFF30583002B2BD0EFF383
:100CC000108572B6284A1268002AFBD0BFF35F8FE6
:100CD000264A0400234EA41B64416243120D54B201
:100CE000234A92689B00D2588A421AD00022032AD3
:100CF00031D853009B189B001A49CB189B795BB2E3
:100D0000A3421ED00132F2E79D211A4B1A4A8900F4
:100D10001A4802F0BDFD1A4B174A1A49174802F04B
:100D2000B7FD134A92681849D150184B1A7882714E
:100D30001C70BFF35F8F0C4B00221A6085F3108884
:100D4000F8BD0E005300991889007118FF278F71A4
:100D50000F4A8A80E9E7A2210E4B074A890007481B
:100D600002F096FDCC050020240100D0AAAA0000C4
:100D700000ED00E0F8B60010C4B7001040B5001058
:100D800020B7001077020000CD0100104D160220A0
:100D900001BDFFFF2CB7001010B5FFF7C5FC010027
:100DA0000148FFF751FC10BD4E16022000B583B07C
:100DB0000100064B0093052300220548FFF71BFCAA
:100DC000002801DB1F23181A03B000BD34B7001040
:100DD0004E16022070B504000E001500FFF754FCFB
:100DE0000100200000F006F8A680E580BFF35F8FC9
:100DF00070BD0000024B9C46614489000160704751
:100E00004000003410B50400FFF73EFC0100200054
:100E1000FFF7F0FF01235B426360BFF35F8F10BDFC
:100E200010B50400FFF730FC01002000FFF7E2FFDF
:100E300001235B42636000232372BFF35F8F10BD09
:100E400010B50D4C09E00D4B0D4A1A210D4802F06A
:100E50001FFD2000FFF7D6FF08340B4B9C4209D240
:100E60002368002BF5D0012BEDD12000FFF7D8FF30
:100E70000C34F2E710BDC046D80E0020E0B70010D9
:100E800098B8001000B80010E80E002000040843D5
:100E900070470000F0B5DE4657464E464546E0B581
:100EA00085B0EFF3058303221A4093469200B24BBC
:100EB000D35898461B785B4507D101235A46934087
:100EC0001A000393AD4B1A6016E1AD4BAD4A922167
:100ED000AD4802F0DDFC5B004B44DB00424652694A
:100EE00092469A4453469E68DF68A84800F03AFC50
:100EF000801BB941002900DA08E1002F5EDB534670
:100F00001C69A34B9C4231D043460820185E5346CF
:100F1000598889B2FFF7BAFF53465969A0470400C0
:100F20000D0023002B4349D0002D29DA361BAF4199
:100F3000009601975346009C019D9C60DD60002057
:100F4000185E002800DAE1E04346596943001B18A7
:100F5000DB00CB189A68DB68A41A9D41002D00DAEB
:100F6000D4E0434618814746083712E053465C698F
:100F7000200023699847002820D065682468D0E7BE
:100F8000824800F0EFFB24184D4100940195D1E711
:100F900007000023FE5E002E0BDB70008019C000EE
:100FA0000818009A019B8468C568121BAB41002B8E
:100FB000EEDA53461E804B463B80A7E053460022A4
:100FC0009B5E424613811269EFF3108372B611687B
:100FD0000029FCD0BFF35F8F42460221525E51468A
:100FE0000A804246494651801269BFF35F8F002153
:100FF000116083F3108889E043461A69EFF310818A
:1010000072B61368002BFCD0BFF35F8F43469B88FA
:101010001BB2994601235B42424693801369BFF39A
:101020005F8F00221A6081F3108818E026000023E9
:10103000F55E002D0BDB6C006419E4003C19009A8E
:10104000019BA068E168121A8B41002BEEDA4B4637
:101050003380634600229B5E994663461D804B4663
:10106000002B59DB43465F694B465B004B44DB007A
:101070009C46BC446346DC689B68009301944646EA
:101080000836D4E70023424693714146083143466F
:101090000820185E11E001225242D317A260E360DB
:1010A000434608229B5E834206D00D8043460822B9
:1010B0009B5E2380434618812800431C30D0434662
:1010C0005A6943001B18DB00D418D55E63881BB235
:1010D000002BE0DB2100EFE76B1C31D104E05B4625
:1010E00004339B00294A9C50284800F03BFB241AFB
:1010F0008D41002D38DC35D0244B039A5A6343468A
:1011000008229B5E9946002B00DBE4E643469B8861
:101110001BB2002B00DB6FE743469B79002BB1D15C
:10112000434608229A5E002A1EDB53009B18DB0010
:1011300042465269944663449C68DD68631CCBD088
:10114000124B996A601A5A4604329200D3585B1ABD
:101150009842C4D30D4B1A6A012359468B4013425F
:10116000C2D1BCE7002CC7D040BF05B03CBC904604
:101170009946A246AB46F0BD8C1200203C7005405B
:1011800024B9001060BA001050B9001000400540AA
:10119000950E0010F8B5CE46474680B50600884645
:1011A00091461F00C160FFF76FFA1B4B9C466044DD
:1011B000800030614B463370BBB27381D02212067F
:1011C00012787270012252423281B2809B18738071
:1011D0000024BC4207D2631E65002D19ED00726920
:1011E00053530134F5E74B469A000C4BD65001247B
:1011F0004B469C4043461C6209494846FFF722FB88
:1012000001214846FFF7F4FA064941440C600CBC42
:1012100090469946F8BDC046400000348C1200202C
:10122000950E00103820000010B5084B1A68EFF337
:10123000108172B61368002BFCD0BFF35F8F034898
:1012400006F0B2FC0020002110BDC046441500206D
:1012500010B5064B1B69002B01D0044810BD044B90
:10126000044A6521044802F013FBC046140600201E
:1012700094B9001048BA001050B9001070B50500BC
:101280000E00182001F0E2F9041E0ED018213000E3
:1012900001F0FAF960610121280000F053FA020020
:1012A000330029002000FFF775FF200070BD00000B
:1012B00070B504001A4B984224D0C3680578012207
:1012C000AA401A6217498C4663441A60012128001B
:1012D000FFF78EFA14492800FFF7FAFB280000F008
:1012E00029FA23789900114A8A58A24211D19B0009
:1012F0000E4A00219950606901F0E8F9200001F0E0
:10130000E5F970BD2E210A4B0A4AFF310A4802F066
:10131000BFFA9921094B074A4900074802F0B8FA79
:101320001406002038300000950E00108C120020AA
:10133000F0B6001078BA001050B90010B8B900101B
:10134000F8B504000069EFF3108772B60168002950
:10135000FCD0BFF35F8F0221665E7500AD19ED0012
:1013600061698C466544002E02DB0020295E6180A5
:101370002169BFF35F8F0020086087F31088002E7B
:101380002CDB0699296107996961AA60EB606B887B
:1013900001335B04590C002B00D10121698030001E
:1013A000FFF774FD2269EFF3108172B61368002B0A
:1013B000FCD0BFF35F8FA3882B80A6802369BFF387
:1013C0005F8F00221A6081F31088E3682178013270
:1013D0008A4004498C4663441A60F8BD01204042AB
:1013E000FBE7C0463C20000070B582B00600140048
:1013F0001D0008AB1B78002B07D100F0E3F9220099
:101400002B00121A8B41002B0ADB079B0193069BD2
:10141000009322002B003000FFF792FF02B070BD56
:101420000020FBE730B5030008145A8990422FDAF8
:1014300042001218D2005869844662441C69EFF3D6
:10144000108572B620680028FCD0BFF35F8F5088EB
:1014500080B20904090C884212D000201A69BFF337
:101460005F8F0021116085F31088002811D0DA68A1
:101470001B7801319940074B9C466244116008E09B
:101480000549084380B2508001229A710120E5E7A6
:10149000002030BD3C2000000080FFFF40787047F6
:1014A000F0B585B006000F00EFF30583002B1AD1CD
:1014B00096246442E517A4197D418D4202D803D1D8
:1014C000844201D90024002500F07CF922002B0081
:1014D000121A8B41002B0BDC08D03000390000F0D1
:1014E00083F905B0F0BD1948FFF738F8002AF4D0A9
:1014F000FFF7AEFE002302930193154B00932200E9
:101500002B00FFF771FF002812DAE6E7002300E066
:101510000023002BE1D10F4B1A68EFF3108172B654
:101520001368002BFCD0BFF35F8F0A4806F0EAFA7D
:10153000094B5B6A9D42EBD80749896AA14203D2F5
:101540009D42E3D00123E4E70123E2E7F8B900106C
:1015500029120010441500200040054070B5040019
:101560000D0000F02FF900196941002902DBFFF797
:1015700097FF70BD012040420049F8E7FFFFFF7F61
:1015800010B5FA2292000023002100F0FBFFFFF7C4
:10159000E5FF10BDF0B5CE46474680B585B00500E5
:1015A0000C00EFF30583002B15D0474B5B6A8B4291
:1015B00009D3454A926A82420BD28B4201D0012064
:1015C00002E0002000E0002005B00CBC90469946E7
:1015D000F0BD0120F8E7FFF73BFEC36899460378AA
:1015E00098462E002700484600F0BCF802000B0089
:1015F000B61A9F41434604339B004A469B58181A2B
:101600000023BB420FDC0CD020BF2F4B5B6A9C42F7
:1016100024D82D4A926AAA4222D29C421CD0012090
:10162000D2E7B042F0D9FFF713FE002302930193F3
:10163000264B00932A002300FFF7D6FE061E11DD7D
:10164000214B5B6A9C4221D81F4A926AAA4232D23D
:101650009C4219D001231AE00020B5E70020B3E72F
:101660000120B1E7184B5B6A9C4209D8164A926A7E
:10167000AA4207D29C4201D00120A5E70020A3E79F
:101680000020A1E701209FE7002300E00023002BBA
:1016900000D120BFFFF7DCFD3100FFF7C3FE0A4B8E
:1016A0005B6A9C420BD8084A926AAA4209D29C42C1
:1016B00003D0012088E70123E9E7002084E7002028
:1016C00082E7012080E7C046004005402912001053
:1016D000004870470040054010B50B4B1B69002BBC
:1016E00004D00A210948FFF785FB10BDFFF7F0FF82
:1016F0000400032100F00CF810230322210002480B
:10170000FFF748FDEDE7C046140600204415002011
:1017100010B5024A0248FEF755FF10BD98BA0010F6
:101720004812002010B50248FEF78EFF10BDC046DB
:101730004812002010B501000148FFF7F3FF10BD6B
:101740000040054000B583B0044B00930323002202
:101750000348FEF750FF03B000BDC046BCBA0010FE
:10176000481200200200436A906A1900536A9942A5
:10177000FAD17047416A994202D2416AFBE7416A55
:10178000994202D1816A9142F9D37047F0B5C646B9
:1017900000B5804614001D00FFF7E4FF06000F00AF
:1017A00022002B0092197B41994202D804D1904229
:1017B00002D901225242D3174046FFF7DBFF04BC97
:1017C0009046F0BD10B50248FFF7CCFF10BDC046F3
:1017D0000040054010B502000B000248FFF7D6FF9D
:1017E00010BDC0460040054010B502000B00024885
:1017F000FFF7C0FF10BDC0460040054070B5046B48
:10180000E30701D4200070BD0B4BC3180B4A1A60CC
:10181000456A836AAD01ED18AD02062000F01EF99D
:10182000074900F01BFB0100280000F017FB002116
:10183000FFF7D0FFE6E7C0463030000001030000AC
:101840004E0E000070B504000E001500FFF7D6FF25
:10185000E16A4E403540024BE3181D60206370BDC5
:101860002C10000070B505000C00062000F0F6F802
:10187000C000210000F0F2FA0130C60907D00E4B7B
:101880009E4215D8400834003F26064000E001245F
:101890006C62AE62002200212800FFF7D3FF062011
:1018A00000F0DCF88000A101891900F0D7FA70BDC2
:1018B0000026024CECE7C046FEFF0000FFFF0000E0
:1018C000002909D00A22064B9C46604443425841F5
:1018D0004000044BC252704780225200F3E7C046DA
:1018E0000080FCBF5016022070B505000C000620D9
:1018F00000F0B4F8002822D0124B9D4220D01623CD
:1019000001229A40104B1A60104B1A60104B1B6852
:1019100011009943FAD100212800FFF7D1FF2100DF
:101920002800FFF79FFFEB6A70225A407E23134086
:10193000084AAA181360084B2B630323AB6470BDDD
:101940001723DDE70080034000E0004000F0004086
:1019500008C000402C10000001030000F8B5D64676
:10196000474680B506000D0017009846440024182D
:10197000A400294B9C4664446368089A934200D2B1
:101980006260331FDBB29A46012B2ED980221201EE
:10199000C0239B01E3181A60B300204A995800291C
:1019A00007D0506900F05AFA431C5800C018033899
:1019B000FDD27F0122685740E022174080235B015F
:1019C000E3181F605246012A1AD980239B01E318AD
:1019D000802212011A60089B6360B6000F4B4246DA
:1019E000F2500CBC90469A46F8BD012DCED1032290
:1019F000C0239B01E3181A60A368DB07FCD5D8E776
:101A00002168694003220A401A60A3680122AA40A3
:101A10001A42FAD0D9E7C046008000405012002098
:101A2000F0B583B005000E0017001800089900F00B
:101A300015FA0300089A140200943A0031002800B5
:101A4000FFF78CFF03B0F0BD10B582B080246400B6
:101A50000094FFF783FF02B010BD00008000014B2F
:101A6000C058704750120020F0B5C64600B50400BB
:101A70000E0090461D00374800F0F0F90700364A86
:101A80004244364B9A423AD80100404600F0E6F90B
:101A90000200103A98235B009A4236D86B1E062B40
:101AA00039D8069B013B062B35D843461A09BA4262
:101AB00037D32D04069B1F032F432368002B36DBEF
:101AC000274B9C4244D00C2301259D40254B1D6093
:101AD000254B1D60254A12682B0093431A1EF9D12D
:101AE0002660A060224BE31821321A602268002A87
:101AF000FCDAE76008221A6004BC9046F0BD1D4B7A
:101B00001D4A11211D4801F0C3FE1D4B1A4A19211F
:101B10001A4801F0BDFE1B4B174A1C21174801F063
:101B2000B7FE194B144A2321144801F0B1FE226874
:101B30003F231340B342C3D1A3681B051B0D83424F
:101B4000BED1E368EE22D2021340BB42B8D1D3E744
:101B50000D23B9E7001BB70080E84BD380F8A9320A
:101B600000C0024000E0004000F0004008C000401B
:101B700004300000D0BA0010ECBB001020BB0010F5
:101B800068BB001084BB0010D0BB001080239B00FA
:101B90000B43014AD36270470080054010B5010035
:101BA00018231B8814221088984710BD10B5010017
:101BB00018231B8816221088984710BDF0B5C6461A
:101BC00000B507000E0000250123984600E001350E
:101BD000B5420AD2AC003C192068FFF7DFFF206055
:101BE0000028F4D100239846F1E7404604BC904613
:101BF000F0BD0000074BAA2212011A608D2252008C
:101C0000DA60054B054A1A60024B5B68002BFBDA71
:101C10007047C046004002400060024000B0FA0039
:101C200010B50400034B9C4202D208CC9847F9E758
:101C300010BDC046ECB200107047000010B502485D
:101C4000FFF7EEFF10BDC046B0B2001010B502485D
:101C5000FFF7E6FF10BDC046E4B20010054B064A90
:101C60001A60064B064A1A60064B1A68044B9343E7
:101C7000FAD1704700E00040BFCDFBFE00F000400D
:101C8000FE7F3C0008C00040044BDB6C002B03D1FE
:101C9000034B8022D2021A607047C04600001150E8
:101CA0004C201150044B054A1A60054B1B68DB435E
:101CB000DB01FAD17047C04600F00040FFFFFF0192
:101CC00008C00040034B40229A675A671A67DA66D9
:101CD0007047C04600F0014010B5FEF7EFFC10BDA4
:101CE00070B5044CA168044DC022280000F00CFD22
:101CF000A56070BD00ED00E00000002070B504207C
:101D0000FFF7ACFE064900F0A9F805000024002CFE
:101D100000DD70BDE0B22900FFF738FF0134F6E7BF
:101D200040420F0030B583B0274B00229A67FFF77F
:101D300061FF264B01221A60234B5B6C012BFBD108
:101D4000234B03221A60204B9B6B012BFBD10133E9
:101D5000009304331F4A01211F48FFF785FE052326
:101D600000931E4A01211E48FFF77EFE1D4B0022F4
:101D700002210420FFF768FE1B4D2B0000220121E9
:101D80000520FFF761FE194C2300002200210720E7
:101D9000FFF75AFE2300002200210820FFF754FE1F
:101DA0008023DB0000932300002200210920FFF79D
:101DB00037FE2B00002200210620FFF745FEFFF72B
:101DC0009DFF03B030BDC046008000403CB00040E5
:101DD00030B00040002F685900800240008C8647D8
:101DE00000C00240001BB70040597307006CDC02C2
:101DF00001480421014B184730060020BD1B00108C
:101E0000014B9B681847000030060020124A936F70
:101E10009B0815D29066D166002905D0FFE7FFE741
:101E2000FFE7516F106F704704B580210906C21794
:101E30005140002800D0C84309F002FA002104BD37
:101E4000F0B5146E556E576F166FFFF7E3FF14660B
:101E5000556657671667F0BD000000D0114A936FB2
:101E60009B0813D210665166002905D0FFE7FFE7F3
:101E7000FFE7516F106F704704B5002801D00020B4
:101E8000C04309F0DDF9002104BDC046F0B5146E71
:101E9000556E576F166FFFF7E5FF14665566576767
:101EA0001667F0BD000000D094464A4A926F92082F
:101EB000624601D228E0C046F0B5464E346E756EDB
:101EC000776F366F00F020F89446424A14665566E4
:101ED000576716676246F0BD94463E4A926F920875
:101EE000624601D254E0C046F0B53A4E346E756E8B
:101EF000776F366F00F04CF89446364A1466556694
:101F0000576716676246F0BD002B24DB11D000290D
:101F10003EDA00B5C943404200D1013100F038F843
:101F2000C943404200D10131DB43524200D1013369
:101F300000BD002AEBD1002801D1002905D00020E6
:101F4000C90FC90701D1C043410800B509F068F9BC
:101F50000022002300BD00B500290ADBDB4352420A
:101F600000D1013300F014F8C943404200D10131DF
:101F700000BDC943404200D10131DB43524200D190
:101F8000013300F005F8DB43524200D1013300BDBC
:101F9000002923D1002B18D1002A0CD0BC460D4FAC
:101FA00038667A6600210023FFE7FFE7FFE77A6FD4
:101FB000386F67467047002801D00748010000B518
:101FC00009F02EF90022002300BD02000B000020C2
:101FD00000217047000000D0FFFFFFFF002B00D062
:101FE000BFE0130C28D1002AE7D080B4114F396626
:101FF0007A66FFE7FFE730B4040C7B6F396F1B0490
:1020000023433B667A66FFE7FFE7FFE7C04684B2FB
:102010007B6F3D6F1B0423433B667A66FFE7FFE758
:10202000C04600232C042D0C7A6F386F00196941CB
:10203000B0BC7047000000D0F0B594460025140EE7
:1020400001D112020835140F01D112010435940F89
:1020500001D192000235D40F01D152000135D40BC9
:102060000134254F7C66254C3C660E0C93B2FFE78D
:10207000FFE7FFE73C6F6643360C7703BE467343CA
:10208000DF0B5B04C01AB941130C7343DB18C91A88
:10209000CE086643360CB64493B273431F0F1B0140
:1020A000C01AB941130C73431F0B1B05C01AB94169
:1020B000860D8F023E436643360C092D24DB520AFF
:1020C0007243801A7703460A6643360C16235B1B5D
:1020D000DE40DF40BF1964466643821B704604350C
:1020E00006330100D940A840C01900D30131A242F3
:1020F00006D20023F0BD0000000000D0FFFFFFFF6C
:10210000121B0130F3D3F1E709277F1BFE40644621
:10211000A2B27243801A00D20139220C7243130C0E
:102120001204821A99410B007046043513370100DE
:10213000F940A840801900D30131002B02D1A242FE
:102140000AD2F0BD013000D30131121BFAD2013B9B
:10215000F8D1A24200D2F0BD013000D30131121BF0
:10216000F7E7F0B51C0C00D080E00CB400251C0A89
:1021700004D11B02160E3343120208351C0B04D186
:102180001B01160F3343120104359C0B04D19B0035
:10219000960F334392000235DC0B02D192185B415B
:1021A00001351C00971864410134464F7C66464C4B
:1021B0003C660E0CFFE7FFE7FFE7C0463C6F664357
:1021C000360C7703BE4697B27743C01B00D2013965
:1021D000C01B00D201399FB27743C91BC91B170C22
:1021E00077437E04FF0B801BB941CE086643360C53
:1021F0000C2D33DBB644120B1F053A431B0B97B271
:102200007743C01B00D201399FB27743C91B170C1B
:1022100077433E043F0C801BB941860D8F023E433D
:10222000664329277F1BFE400C3D7746AF40BF1910
:1022300030BCA2B2ABB272437343801A9941220CF4
:102240007243130C1204801A994102000B000137EB
:10225000001BA941F9D2781E0021F0BD0C277F1B7D
:10226000FE4077467F0BAF40FF19E0E700245D1C7E
:1022700007D0144F7D663966FFE7FFE7FFE7FFE70A
:102280003C6F95B29EB265436643401BB141150C4D
:102290001E0C6543664336042F0C3E432D04401B41
:1022A000B141994204D202000B0020000021F0BD90
:1022B00001D19042F7D3801A994101349942F2D367
:1022C000F6E70000000000D0FFFFFFFF484041405C
:1022D000484018B4134B5B68019308BD18B4114B08
:1022E0001B68019308BD94460F4A926F920805D26D
:1022F000624618B40B4BDB68019308BD0A4AF0B57F
:10230000146E556E576F166F6246FFF7F2FF064A5E
:102310001466556657671667F0BD18B4014B9B6885
:10232000019308BD54160220000000D0FFB55040B4
:102330004240504059404B40594000E0FFB5154FD6
:102340004C00640D03D0BC4204D10C0314D800200F
:10235000090D09055C00640D03D0BC4204D11C03C7
:102360000AD800221B0D1B0501264B4009D44B4007
:1023700003D58B4200D18242FFBD9942FCD19042ED
:10238000FFBD0B43DB1803431343F5D0C943491882
:10239000FFBD0000FF07000000B5FFF7CFFF804141
:1023A00000BDC04600B5FFF7C9FF01D9002000BD40
:1023B000012000BD00B5FFF7B9FF01D9002000BD25
:1023C000012000BD00B5FFF7B1FF804100BD012035
:1023D00040054A00121804D85A00121801D80020EB
:1023E00070470120704700000021002805D1704788
:1023F000C1174840401AFAD0C90713B5064B1B68ED
:1024000098470CBC441CA2401005120B0349091B41
:1024100009051943114310BD401500201F04000099
:1024200010B54C00620D8023D218DB00D21A5B0578
:102430007E2A10DD9E3A13DACC17090349081943A6
:102440005242D140640001341532202A05DAD040CE
:102450000843604310BD002010BD0846604310BD16
:10246000C80FC018013810BD18B4024B5B6A019345
:1024700008BD00005416022010B50148FEF76EF8A2
:10248000F8BB001070B513231C78012C0CD0012C64
:1024900013DC022C02DC1F4A1F4B9A641F48FFF713
:1024A0007DFB1F4B186070BD00231F2BEFD89900D8
:1024B0001C48194A88500133F7E71B48FFF776FBA1
:1024C00005001A48FFF772FB023803789B007F2B48
:1024D00019DD80222900104800F016F9022CD8D10D
:1024E000134B1A88B5231B029A4209D1114B1A8843
:1024F000114B9A4204D1114B1A88114B9A42C8D001
:102500000020FEF72BF80F4B0F4A33210F4801F044
:10251000BFF9C04651250010541602204C3300006C
:102520004015002079240010534400005346000059
:1025300054380000D8380000494600009C3800009C
:102540005946000010BC0010B0BC001054BC001074
:1025500007B56046002800D100BE01880A0A023093
:10256000DF2AFAD1C9B2820804D302884088000465
:10257000104300E00068024A5050039007BD00007D
:102580005416022051434343C9188C46110C83B2A0
:102590004B4310B4040C614392B280B25043624387
:1025A0001C041B0C001910BC59411304120CC01858
:1025B000514161447047000010B50148FDF7CEFF5E
:1025C00010C9001070B513231D781848FFF7EEFAF4
:1025D0000400012D11D0012D09DDA31E1B789B00E5
:1025E0007F2B1DDD80222100114800F08DF811485D
:1025F000FFF7D4FA104B186070BD542201000C484C
:1026000000F082F8002300E001331F2BE3D89A008A
:1026100007495258002AF7D19A0008485050F3E76A
:10262000074B084A4221084801F032F9534600009E
:10263000541702204C33000040150020B92500102B
:10264000C4BC001050BD0010F8BC001070B50400F0
:102650000A4E300008F01CFE200008F093F8050038
:10266000300008F0D5FD002D05D02C19044B9C42FC
:1026700001D8280070BD0348FDF770FFD80E002078
:102680000000042064BD0010F8B506000C000C4FDB
:10269000380008F0FDFD2100300008F039F8050091
:1026A000380008F0B5FD7443002D05D02C19054BFA
:1026B0009C4201D82800F8BD0348FDF74FFFC046F3
:1026C000D80E00200000042064BD001070B5040086
:1026D000054D280008F0DCFD200008F05DF828001A
:1026E00008F096FD70BDC046D80E002001480421B8
:1026F000014B184740060020BD1B0010014B1B6812
:102700001847000040060020014B5B681847000096
:1027100040060020704710B5002802D00B684968B9
:10272000984710BD010000200A681378303BDBB2E7
:10273000092B08D883001B185B00501C0860107818
:10274000C0183038F0E77047F0B5DE4657464E46C1
:102750004546E0B583B093461F000C9B9A460D9CFE
:102760000E9B99460F9B9B0703D0B8460F000600AF
:1027700022E00192A34688464E46B9460700B4427D
:1027800007D2551C4B4641462020B84701342A0049
:10279000F5E73D004F465C46019B9B46B1464646E9
:1027A000B84637002E0007E0013C551C5346185D23
:1027B00043463900B0472A00002CF5D135003E00D1
:1027C00047460F9B9B0707D4100003B03CBC9046C4
:1027D0009946A246AB46F0BDB0464E46B9462F00DC
:1027E0005D46531BB342EFD2541C4B46414620205A
:1027F000B8472200F5E7F0B5CE46474680B585B02C
:10280000944698460C9D0D9C0EAB1B789946109AE9
:10281000119B129EB7071BD4002B08D0F70706D5D3
:102820004F46002F02D10C37374200D0013B944273
:1028300008D21F2C06D830272F550134F7E7302750
:102840002F550134F70703D59C4201D21F2CF6D92E
:10285000F70615D5770505D4002C03D0944224D073
:102860009C4222D00F9A102A2BD00F9A102A30D0D7
:102870000F9A022A35D01F2C02D830222A55013453
:102880001F2C05D84A46002A31D02D222A55013462
:10289000039602930194009543466246FFF754FF66
:1028A00005B00CBC90469946F0BD621E012C06D0C6
:1028B0000F9F102F01D01400D4E7023CD2E7140080
:1028C000D0E7B206D1D41F2CCFD878222A550134B4
:1028D000D1E7B206CCD51F2CCAD858222A550134CC
:1028E000C9E71F2CC7D860322A550134C3E77207E5
:1028F00003D52B222A550134CAE73207C8D5202236
:102900002A550134C4E7F0B5DE4657464E464546E3
:10291000E0B593B081468A46089209931CAB10CB70
:102920001B789B461E9D219B9846002C03D11023AB
:1029300042469A4390468023DB0046461E4042466C
:102940001A4212D0002C22D000260EE03033D9B229
:10295000771C0AAB995529002000FFF77FFAAC429B
:1029600016D31F2F14D83E00040029002000FFF7C3
:1029700075FACBB2092BE9D94246920605D5412119
:10298000C918C9B20A39C9B2E2E76121F8E72700DC
:1029900043460693209B05931F9B049303955B4638
:1029A000029301970AAB0093099B089A5146484647
:1029B000FFF721FF13B03CBC90469946A246AB46B8
:1029C000F0BDF0B5DE4657464E464546E0B595B0FB
:1029D000089009910A920B931E9E1F9C20AB1B78B6
:1029E0009B46229B9946239D269B9A463300234370
:1029F00003D1103352469A4392468023DB00574658
:102A00001F4052461A4219D0330023432DD00027CD
:102A100014E03033DAB27B1C98460CABDA554A46E8
:102A20002B0030002100FFF757FAA5421FD819D01C
:102A300043461F2B1BD8474606000C004A462B0076
:102A400030002100FFF748FAD3B2092BE1D95246F2
:102A5000920605D54122D218D2B20A3AD2B2DAE7AA
:102A60006122F8E7B145E3D901E0002398465346D7
:102A70000693259B0593249B04934B4603935B4647
:102A80000293434601930CAB00930B9B0A9A09995E
:102A90000898FFF7B0FE15B03CBC90469946A24698
:102AA000AB46F0BDF0B5DE4657464E464546E0B56E
:102AB00091B083468A460C9298461A9C08941B9DB6
:102AC000099522002B0020002900FFF780FC002838
:102AD00000D0E5E001225242D34B20002900FFF74D
:102AE00071FC002800D0DBE001225242CF4B2000D5
:102AF0002900FFF751FC002800D0D1E0002200237C
:102B0000089D2800099E3100FFF746FC002800D0F0
:102B1000DDE008980999069007918023DB001E9A52
:102B20001A400D921E9A1A4201D106231C93069850
:102B3000079904000D000A000600024300D1CDE011
:102B4000080D4005400DBA4CA44660440A03120B20
:102B5000B84B13431F00FFF74BFCB74AB74BFFF7C7
:102B6000DCFBB74AB74BFFF7B9FB04000D000022AE
:102B7000B54B30003900FFF7ACFBB44AB44BFFF75C
:102B8000CCFB02000B0020002900FFF7A7FBFFF79A
:102B900047FC8146FFF72CFC04000D00AD4AAE4B0C
:102BA000FFF7BBFB0022AD4BFFF798FBFFF738FCAC
:102BB0000600AB4AAB4B20002900FFF7AEFB040038
:102BC0000D003000FFF714FCA74AA84BFFF7A5FB48
:102BD00002000B0020002900FFF77BFB04000D0022
:102BE00002000B00FFF799FB0A900B91A04BF31822
:102BF00000261F0522002B0020002900FFF76EFB96
:102C00000E900F9122002B0000208021C905FFF7B4
:102C100060FB04000D000022964B0A980B99FFF709
:102C200062FB0022944BFFF759FB02000B000A984D
:102C30000B99FFF758FB0022904BFFF74FFB020068
:102C40000B000A980B99FFF74EFB02000B002000C7
:102C50002900FFF743FB02000B000E980F99FFF7C6
:102C600042FB0022734BFFF739FB32003B00FFF7BA
:102C700054FB06000F0004000D00069A079BFFF7A7
:102C8000A1FB00282CD001235B429C46E14400229A
:102C9000794B30003900FFF726FB04000D001FE0E0
:102CA0001E9B04931D9B03931C9B0293089A099BF4
:102CB0000092019343460C9A5146584600F0F8F8AA
:102CC00011B03CBC90469946A246AB46F0BD069575
:102CD00080231B069C46664407961EE70023994600
:102CE0004B466333C62B1FD804261E9B1B0527D5D6
:102CF0002B00234310D0624A624B06980799FFF7D6
:102D000059FB002800D183E000225F4B0698079909
:102D1000FFF742FB00287BD01C9B4B4506DD4A4653
:102D2000981A431E1C9303E00526DEE700231C933C
:102D30008023DB001E9A1A431E9200260023994628
:102D40001D9B9E426ED29F1B02231E9A1A400A921E
:102D50001E9A134202D0002E00D000274B46002BB3
:102D600007D022002B0006980799FFF7BCFA0690BF
:102D700007910022002308980999FFF70DFB00280E
:102D800000D085E0414B1E9A1340049303971C9B8F
:102D90000293069B079C0093019443460C9A51466C
:102DA000584600F085F8002E00D189E71E9B9B064F
:102DB0007AD54525441C4346020051462800D84791
:102DC0004B46DA179B18534005220592013E0496A4
:102DD000002203920A3202924A46D00F01900093D9
:102DE0004346220051465846FFF78DFD0A9B002BB3
:102DF00000D165E702005F460C9E1D9D931BAB4210
:102E000054D2541C434651462020B8472200F5E7CF
:102E10001C9B002B94D00D9B002B91D01C9B013B45
:102E20001C938DE700278FE7FFFFEF7FFFFFEFFF8A
:102E300001FCFFFF0000F03FFB799F501344D33F9C
:102E4000B3C8608B288AC63F0000F83F61436F63B8
:102E5000A787D23F71A379094F930A400000E03F52
:102E60001655B5BBB16B0240EF39FAFE422EE63F74
:102E7000FF03000000002C40000024400000184028
:102E80002D431CEBE2361A3F80842E41FFF7FFFFF3
:102E9000069C079D2200290080200006844661448C
:102EA0000B00069207936DE7652583E7100007E79F
:102EB000F0B5DE4657464E464546E0B595B006901D
:102EC000079193469946209F1E9A1F9B1000190058
:102ED000FFF77DFA002831D101225242BF4B1E98E4
:102EE0001F99FFF759FA002837D101225242BC4BF3
:102EF0001E981F99FFF766FA00283DD10022B94BB2
:102F00001E981F99FFF75EFA002850D10022B64B99
:102F10001E981F99FFF740FA002848D1002200238D
:102F20001E981F99FFF738FA002850D100239846C1
:102F3000229B5B0500D4B6E0002458E0229B03935B
:102F4000219B029303230193A84B00934B465A46BF
:102F500007990698FFF7F8FB0EE1229B0393219B4C
:102F6000029304230193A24B00934B465A460799C0
:102F70000698FFF7E9FBFFE00423229A1A40229902
:102F80000B4210D09B4B002A0FD0042222990391B0
:102F900021990291019200934B465A46079906984F
:102FA000FFF7D2FBE8E0944BEDE70322EEE7229B2C
:102FB0000493219B039302971E9B1F9C00930194F3
:102FC0004B465A4607990698FFF76CFDD4E01E9AC7
:102FD0001F9B00200021FFF77CF91E901F91012309
:102FE0009846A5E70CAB30221A55013F01341F2C3F
:102FF00001D8092FF6D81E981F99FFF711FA05007E
:10300000FFF7F6F902000B001E981F99FFF761F910
:10301000FA007A4B9B181A685B680A920B93FFF7C9
:103020007CF908900991FFF71FFA0600FFF7DCF919
:1030300002000B0008980999FFF74BF908900991D5
:1030400000226F4BFFF7BEF900282ED0013630006A
:10305000FFF7CAF902000B000A980B99FFF7A2F9D3
:10306000002801D001350026002F2CD12800FFF7C1
:10307000BFF902000B001E981F99FFF72AF90600FE
:103080000F0000225E4BFFF787F9002842D1002293
:103090005B4B30003900FFF795F900283AD1EB0778
:1030A00038D5013536E0062746E70022544B08980C
:1030B0000999FFF771F90028D6D1002E01D0F30746
:1030C000D2D50136D0E7AA461F2C11D8013F0A21DC
:1030D0003000FEF7C3FE651C30310CAB19550A21D8
:1030E0003000FEF7BBFE092E26D906002C00EBE7C8
:1030F000554604E00CAA302111551F0001341F2C45
:1031000002D87B1E002FF5D11F2C03D80CAB2E222A
:103110001A5501341F2C14D80A212800FEF776FE18
:10312000661C30310CAB19550A212800FEF76EFEE3
:10313000051E05D03400EDE72B0055461C00DEE7E8
:1031400034000323229A1340012B1CD01F2C06D8D5
:103150004346002B32D00CAB2D221A550134229B52
:103160000393219B029301940CAB00934B465A4668
:1031700007990698FFF7E8FA15B03CBC90469946C7
:10318000A246AB46F0BD219B002B13D04346002B3B
:1031900002D10C3313420FD0219B013B2193190024
:1031A00003E00CAB30221A5501348C42CED21F2CD6
:1031B000F7D9CBE72199F8E72199F6E7229B5B073E
:1031C00004D50CAB2B221A550134C8E7229B1B07F0
:1031D000C5D50CAB20221A550134C0E7FFFFEFFF25
:1031E000FFFFEF7F65CDCD4165CDCDC114BE001091
:1031F00018BE00100CBE001008BE001000C0001069
:103200000000E03FF0B5DE4657464E464546E0B585
:1032100093B082468B4690461193002900D1ECE290
:1032200000275546119B1878002800D1E8E2252890
:1032300009D07C1C43463A005946A847119B0133EC
:1032400011932700EEE70133119300241DE00B00DA
:10325000303BDBB2092B37D92A293AD000230A9315
:10326000119B1A782E2A44D000239A46119A13787B
:10327000683BD9B2122900D980E08B00CB49CB58EA
:103280009F4601231C4301321192119A11780B00C1
:10329000203BD8B21028DAD88300C548C3589F46CF
:1032A00002231C4301321192EFE704231C43013235
:1032B0001192EAE708231C4301321192E5E710233B
:1032C0001C4301321192E0E711A8FFF72BFA0A9094
:1032D000C6E71C9B1A1D1C921868002804DB0A9084
:1032E000119B01331193BBE702231C4343420A9312
:1032F000F6E78022D20014435A1C11925A78130028
:10330000303BDBB2092B04D92A2A07D000239A4686
:10331000ACE711A8FFF706FA8246A7E71C9B1A1D27
:103320001C921868002804DB8246119B013311931C
:103330009CE70020F8E780235B002343511C119198
:1033400052786C2A01D01C0018E0C0239B001C435B
:103350000131119112E080232343511C11915278C5
:10336000682A01D01C0009E0C0231C4301311191DF
:1033700004E080235B001C4301321192119B1878FA
:103380000300253BDAB2532A00D92CE29300894A84
:10339000D3589F4680239B001C4301321192EDE7D6
:1033A00080235B001C4301321192E7E7782809D0A3
:1033B000582838D06F2838D0622838D010239C4342
:1033C0000A2600E01026582833D0692803D0642844
:1033D00001D00C229443630501D50122944369284E
:1033E0002AD0642828D0A30500D59FE0E30500D5A6
:1033F000B8E0630600D4CAE01C9A111D1C91116844
:10340000FF220A4005940A9B0493534603930296B5
:1034100000230193009243463A0059462800FFF7E3
:1034200072FA070027E01026CDE70826CBE7022630
:10343000C9E720221443C8E7A30520D4E30550D4EC
:10344000630666D51C9A111D1C911168FF220A4063
:10345000D317D118594005940A9B049353460393FC
:103460000296D20F0192009143463A005946280035
:10347000FFF749FA0700119B01331193D2E61C9B19
:10348000DA1D07218A43110008311C911168536825
:103490009C46DB170C930D930C9A0D9B1000484033
:1034A0000E90624653400F930E980F990C9A0D9B05
:1034B000801A99410E900F9108940A9B07935346E6
:1034C00006930496002305936346DA0F0292009058
:1034D000019143463A0059462800FFF772FA070067
:1034E000C9E71C9A111D1C911268D317D1185940B5
:1034F00005940A9B0493534603930296D20F0192BC
:10350000009143463A0059462800FFF7FCF90700AE
:10351000B1E7230605D51C9A111D1C910023D25E2C
:1035200096E71C9A111D1C91126891E71C9BDA1DED
:1035300007218A43110008311C9108940A9B0793C4
:103540005346069304960023059302931368546828
:103550000093019443463A0059462800FFF731FA98
:10356000070088E71C9A111D1C9105940A9B04937F
:103570005346039302960023019313680093434636
:103580003A0059462800FFF7BEF9070073E7230603
:1035900006D51C9A111D1C9112681204120C31E7F9
:1035A0001C9A111D1C9112682CE7C04620BE001009
:1035B0006CBE0010B0BE001046281AD01C9B07330A
:1035C000072293431A0008321C9204940A9A039229
:1035D000524602925C681B680093019443463A008D
:1035E00059462800FFF764FC0700119B0133119333
:1035F00018E620231C43E1E7672801D0472802D1C1
:1036000080231B011C43452801D0472801D12023DA
:103610001C431C9B0733072293431A0008321C9259
:1036200004940A9A0392524602925C681B680093C3
:10363000019443463A0059462800FFF733FA070041
:10364000119B01331193EDE502231A0022409246AB
:1036500023421FD001241C9B1A1D1C927A1C9146E8
:10366000187843463A005946A8475346002B16D1CE
:10367000119B013311934F46D4E5561C43465946DE
:103680002020B847230032005C1C9D42F5D83D0045
:103690001700E0E701233A002F000A9DF4E74A46AD
:1036A000A9460A9D06E0571C434659462020C847B4
:1036B00034003A00661CA542F5D84D469146D7E73E
:1036C0001C9B1A1D1C921B6899465346002B00D167
:1036D000013B4E4601E0013613003278002A02D049
:1036E0005A1E002BF7D14B46F21A10928023DB00B2
:1036F00026001E401C4203D0524501D95346109368
:1037000002231A0022400B92234205D03A003700D0
:103710004C46A946554620E03A00109B5F46B3460A
:103720002E0006E0551C434639002020B0472300F8
:103730002A005C1C0A999942F4D835005E46BB46C3
:10374000109437004C46A946554606E01D0001344A
:10375000561C43465946C84732002078002804D0FA
:10376000002FF4D06B1E002DF0D117004D460B9B9F
:10377000002B03D1119B0133119353E50A9F109B3A
:1037800006E0561C434659462020A8472300320035
:103790005C1C9F42F5D81700ECE721231C431C9BBF
:1037A0001A1D1C921B68009305940823049353462A
:1037B0000393102302930023019343463A00594692
:1037C0002800FFF7A0F80700119B0133119329E5AA
:1037D0007C1C43463A0059462520A847119B0133DB
:1037E000119327001EE57C1C43463A005946A84722
:1037F000119B01331193270014E50B4B9A460FE5FB
:10380000AA4647450DD343465A1E43465946002013
:10381000D047380013B03CBC90469946A246AB4610
:10382000F0BD3A00F1E7C0461527001000B585B09D
:10383000029003910121009313004A4202A9024819
:10384000FFF7E0FC05B000BD1727001000BEFDE744
:1038500003000A4A1268002A08D0084A1068C318F0
:10386000074A9A4206D3054A13607047034A05493E
:103870001160F2E701204042F7E7C04684120020C1
:10388000000004209421022010B5FFF7DFFF0000A4
:1038900010B582B00C001900002A0CD0084B002A89
:1038A0000BD00192009323000200064800F060F95B
:1038B0000120FFF7CBFF044BF1E7034AF1E7C046D5
:1038C00050C0001060C0001010C9001010B5EFF318
:1038D0000583002B00D000BEFEF7B0F9034C044B6B
:1038E0009C4202D208CC9847F9E710BDECB2001018
:1038F000F8B2001010B50300080011001B689847CB
:1039000010BD0000F8B507000D001600437D002B28
:1039100002D0002400200CE0036811002800984722
:103920002DE03B7D10E0022115483B689847601C64
:103930000134B44214DA002CF3DD2B19013B1B785F
:103940000D3B5A425341DBB22A5D0A2AF0D1002BCB
:10395000EED1A042E7DA211A28183B689847E2E73F
:10396000B04203DA311A28183B689847002E06DD6A
:10397000AD19013D2B780D3B5A4253413B75F8BDC3
:1039800090C0001070B505000368002B16D00C4BDA
:103990001C6805E0290004C92000FFF7B3FF246973
:1039A000002C09D02368002BF9D0064B1B68002B94
:1039B000F0D0A342F3D1EDE700232B6070BDC046E9
:1039C0007C1200208012002070B505000C000B68EE
:1039D000802B05D021684B1C23606418257170BDB5
:1039E0000800FFF7CFFFF5E710B5FDF7EBFE074A3C
:1039F000002312184B41002B03DB054807F038FC6D
:103A000010BD01225242034BF7E7C04640420F006F
:103A1000E00E0020FFFFFF7F10B5024807F0F8FB23
:103A200010BDC046E00E0020F0B5CE46474680B53A
:103A300083B006000D0090461C00FFF7D5FF8146BD
:103A40006B1C05D0002C08D0184F194B1C6807E0E0
:103A5000300007F00DFA0500F4E7164FF5E724698A
:103A6000002C17D02368002BF9D0134B1B68002BB8
:103A700001D0A342F3D12A0031002000B8474346C9
:103A8000002BECD06B46D91D0A230B7001222000BD
:103A9000B847E4E74B46002B05D1280003B00CBC27
:103AA00090469946F0BDFFF7B7FFF6E705390010DD
:103AB0007C120020F538001080120020094A13689B
:103AC000002B0BD0834202D010331A00F7E70029F5
:103AD00007D1036913600023036102E0002900D0CD
:103AE000106070477C12002010B5064B1C6800E087
:103AF0002469002C04D06368002BF9D09847F7E7BD
:103B000010BDC0467C12002010B500F03DF9012028
:103B100010BD70B5050007F0ABF9040001230122C8
:103B200001002800FFF780FFFFF7DEFF200070BDD7
:103B300070B5A2B004000E00FFF756FF0500002389
:103B400001933300220001A90848FFF76FFE04002B
:103B500001A8FFF717FFFFF7C7FF002D02D12000D4
:103B600022B070BDFFF758FFF9E7C046C939001011
:103B70000FB400B583B004A901C90191FFF7D8FFC4
:103B800003B008BC04B01847F0B583B000251AE0B4
:103B90006B4607330D241C70002403E01F78176068
:103BA00001340133002C1CD19769BF06FCD4F5E722
:103BB0001E78166001340133002C03D19669B606D5
:103BC000FCD4F5E701358D4210DA094B1A68465DE1
:103BD000084BD3185C4263415B00074C1B5FB34248
:103BE000D6D06B4607331E700024E5E703B0F0BD66
:103BF000481500200080FCBF50160220F0B583B0AD
:103C0000070000200DE09369DB06FCD413682B70DD
:103C100001340135002CF6D06B4607331B78037056
:103C2000300088420CDA114B1A68936910252C0079
:103C30001C401D4204D1461C38186B46DD1DE9E7C7
:103C40000B4B1B68002B0AD0084B1B6850229A6351
:103C5000596B183A0A4007498C4663441A60002899
:103C600001D003B0F0BD0338FBE7C0464815002083
:103C70003C1200203410000010B5064B1B68002BCE
:103C800006D0054A126800219163044A10689847DB
:103C900010BDC0463C1200204815002040120020F4
:103CA000024B1A6893691B07FCD470474815002023
:103CB00070B51E4B1B681E4A934209D0142400287D
:103CC00003D01C4A1268002A04D000281AD070BD04
:103CD0001524F4E7174B1860174B1960174920009B
:103CE000FCF7B0FD01212000FCF782FD0F4B1B68A3
:103CF00050229A63596B183A0A4011498C46634422
:103D00001A60E4E70B4A1268002AE0D000259D63A0
:103D100000212000FCF76CFD08492000FCF7D8FECC
:103D2000044B1D60044B1D60D1E7C04648150020C0
:103D3000008003403C12002040120020793C00101B
:103D40003410000070B50D001C000D4B1860002AE7
:103D50000BDA002C0EDA0A4B18682900FDF7C4FDB7
:103D600001210848FFF7AAFE70BD02211000FCF7F0
:103D70000BFBEEE702212000FCF706FBEBE7C04659
:103D8000481500205006002010B5074B1B78074B44
:103D90001B78074B1B78E1210123002249020548CB
:103DA000FFF7D0FF10BDC0466059041064590410DD
:103DB0006859041000400340014B18607047C0462A
:103DC0001011002010B50A000100024802F0E4FAC8
:103DD00010BDC04658180220014B18687047C046F5
:103DE0001011002000B583B0684603F035FA69462B
:103DF000034803F037FA002800D0014803B000BDA3
:103E0000E80E002010B5FFF7E7FF040002F0F2FE15
:103E1000054B9C4200D010BD23685B6B2000984787
:103E20000020FFF7C9FFF6E7E80E002010B5FFF706
:103E3000D3FF041E06D0200002F0C0FE002808D0E8
:103E4000002010BDFFF7CEFF041E07D0FFF7B4FF20
:103E5000F1E7FFF7D7FF01204042F2E7012040429F
:103E6000EFE7000010B5024800F00CF810BDC046A6
:103E70003815002010B508220149FEF745FC10BD99
:103E80003815002070B588B0040004AD00260496F3
:103E90000922002105A8FEF731FC00960922002125
:103EA00001A8FEF72BFC4B232B700D22694628003E
:103EB00007F0A6F9002304E05A1D69468A5CE25423
:103EC0000133072BF8DD08B070BD002805D0D023E2
:103ED0001B06802292045A617047D0231B06802261
:103EE00092049A61F8E7000010B50F4BC45823689C
:103EF0000E4A94466344190D0631C9B21820FCF7E6
:103F000043FA2168094B9C466144090D0631C9B248
:103F10001D20FCF739FA012200211D20FCF74EFA82
:103F20000020FFF7D2FF10BD4C0800000000E0AFFA
:103F300010B504000520FDF791FD000C6043034916
:103F4000FDF78CFF0338FDD210BDC0469A3B000040
:103F500010B50120FFF7B9FF6420FFF7E9FF10BD9E
:103F600070B50500154BC458002C14D021680029E9
:103F700006D06368A268124802F054FC0023236054
:103F80000C202056002807DA0D20205600280CDAD5
:103F90000A4B0022EA5070BD02F06AFC0C20205649
:103FA00002F04EFCFF232373EEE702F061FC0D20CC
:103FB000205602F045FCFF236373E9E74C0800003C
:103FC000E0C50010F0B5CE46474680B593B0050079
:103FD000604BC358002B00D0A9E05F495D4BC15036
:103FE00000230B60FF334B730B730B1D0A00083269
:103FF000012002900530019012300090574802F0E5
:1040000091FB002800D198E0534C676800230D9382
:10401000802676020A96F8235B020B93C0231B03CB
:104020000C9310220AA906A8FEF76EFB7B1DFF0168
:104030001B031F4380239B050993494B98461F4050
:104040000797102206A90EA8FEF75EFB80218902C1
:104050000E91444A10683023834343480360136839
:104060000122914617009F4307600F9B0593474627
:104070001F40109B3D4803401E433D4B1E400E43D6
:10408000B04623683B498C4663448021490419604B
:104090002068A1684B005B18DB00C318C732944648
:1040A0009C4462460E9E1660D02294469C44624612
:1040B000464616601E00CC363760DC332E4E1E603E
:1040C0004B4600931D2202F0D3FA23682B4A9446F4
:1040D0006344190D0631C9B21820FCF755F90122C5
:1040E00000211820FCF76AF901211820FCF782F959
:1040F000A26853009B18DB00226894466344D833BF
:104100001F4A1A60002002F0A3FB2073002002F077
:104110009FFB40B260730C23E356002B13DB002897
:1041200011DB002013B00CBC90469946F0BD154B36
:10413000154A6E211548FFF7ABFB2800FFF710FF6B
:1041400006204042EEE72800FFF70AFF0620404223
:10415000E8E7C0464C0800002C120020E0C5001023
:10416000FFFFFF9F78C0014078D00140FFFF0AFEAB
:10417000FFFFF5C13820000018771C240000E0AFD5
:1041800001E0000088C2001080C5001098C2001035
:10419000F0B5D6464F464646C0B582B00D00160073
:1041A0001F00002900D16DE1D84BC458FFF79CFED9
:1041B000002F00D1DEE1002D00D169E1B30700D06E
:1041C00073E1A846AB0700D075E1BB0700D078E1EA
:1041D0000A9B9B0700D07AE1226813680125290019
:1041E000A06881408B431360A068636805339946DB
:1041F00041000A18D20023689C466244CC321268FF
:10420000C34B1A406368DB011A434B461B0313433D
:104210000818C00062461118CC310B60A268530028
:104220009B18DB00D03322689446634480225201FD
:1042300094466344802212061A601A608022520457
:104240000023A16820680092019302F00BFAA36892
:1042500004332A009A402368802189018C466344F4
:104260001A60A36808332A009A40236863441A60DE
:10427000F200013AA36804339B0021685A50A268F7
:1042800053009B18DB00226894466344D833A14A4C
:104290001A600A9B9A1BD200013AA36804339B0060
:1042A00021685A50A26853009B18DB00226894468C
:1042B0006344D833984A1A60A1681F2263681A4081
:1042C0004B005B18DB0021688C466344D8331A60CE
:1042D0000C22A2562B009340A020C0058F494350CA
:1042E0009101A023DB059C466144CB68DB01F7D438
:1042F0000D22A25601239340604688494350910104
:10430000A023DB059C466144CB68DB01F7D40C227B
:10431000A256834B0C2A00D9DFE082490B40D2021F
:1043200013430C229343043A13437F4A13407F4ABA
:1043300013407F4A1340012213437E4A1340022256
:1043400093438022D203134322687B498C46624404
:10435000120DD200A1688C4662443F2A00D9C2E007
:1043600076490B40D20313430C216156A2680432F4
:10437000920020688018B2088901A025ED05AC469E
:10438000614445460D6048608A60CB600D216156EE
:10439000634B0C2900D9ACE062480340C9020B43CF
:1043A0000C218B4304390B435F490B405F490B40A1
:1043B0005F490B4001210B435E490B4002218B43B7
:1043C0008021C9030B4321685B4884466144090D81
:1043D000C9000431A068844661443F2900D98EE0B9
:1043E00056480340C9030B4320210B4310398B432C
:1043F0000D202056B919A5680835AD00AC462568D2
:10440000A846C4440A9DAD08AA1A8001A025ED055E
:10441000A84640446546056041608260C3602168EB
:104420000B680122A0688240934313430B600C2267
:10443000A2569301A021C9058C4663441B69DB0188
:10444000F7D40D22A2569301A021C9058C466344DE
:104450001B69DB01F7D4320000213800FEF74EF96A
:104460002368A1684A005218D2009B18D833344AF6
:104470001A60FFF76DFD002002B01CBC9046994603
:10448000A246F0BD002B00D08EE605204042F3E7A7
:10449000002E04D00A9B9E4201D23D008EE6294B9D
:1044A000294AEF212948FFF7F3F9294B264AF5213C
:1044B0002648FFF7EDF9274B234AF6212348FFF75B
:1044C000E7F9254B204AF7212048FFF7E1F9234B74
:1044D0001D4AF8211D48FFF7DBF9214B214ACD2168
:1044E0002148FFF7D5F9214B214ABF211E48FFF78C
:1044F000CFF91B4B1B4ACD211B48FFF7C9F91B4BBA
:104500001B4ABF211848FFF7C3F9C0464C080000FA
:104510007F00FEFF206000004060000044040000B7
:1045200010801F00FF87FFFF3FF8FFFFFFFFBFFF67
:10453000FFFFDFFFFFFF7FFF0000E0AFFF7FE0FF37
:1045400003A00000F4C2001090C5001098C2001033
:1045500018C300102CC3001044C300105CC300102B
:1045600070C3001064C5001090C30010E8C30010B1
:104570004CC50010002D00D172E7A946AB0700D052
:10458000F2E0B30700D0F6E0226813680127390093
:10459000A06881408B4313602568A168636801337C
:1045A00098464A005318DB00EB18CC331B687B4855
:1045B00003406068C00103434046000303435118B1
:1045C000C9006A18CC321360A26853009B18DB0044
:1045D000D033226894466344802252019446634457
:1045E000802212061A601A60802252040023A168F9
:1045F00020680092019302F035F8A36804333A0072
:104600009A402368802189018C4663441A60A3681C
:1046100008333A009A40236863441A60F200013A72
:10462000A36804339B0021685A50A26853009B186A
:10463000DB00226894466344D833594A1A60A36861
:1046400004339B00002221685A50A26853009B1833
:10465000DB00226894466344D833524A1A60A1684A
:104660001F2263681A404B005B18DB0021688C46F0
:104670006344D8331A600C22A2569740A021C90582
:10468000494BCF509301A021C9058C466344DB6898
:10469000DB01F7D40C22A256444B0C2A72D84449B1
:1046A0000B40D20213430C229343043A1343414A72
:1046B0001340414A1340414A134001221343404AE8
:1046C0001340022293438022D203134322683D49C0
:1046D0008C466244120DD200A1688C4662443F2A87
:1046E00056D839490B40D20313430C22A256A16875
:1046F00004318900206884466144B6089201A020F4
:10470000C005844662444846106051609660D3609C
:1047100021680A680123A06883409A4313430B6011
:104720000C22A2569301A021C9058C4663441B6943
:10473000DB01F7D4A368183301229A4023689A60FA
:1047400023689B681A42FBD021680B680122A0688D
:10475000824093430B60A1682068002300930133DB
:10476000182201F085FF7BE69121184B184A490079
:104770001848FFF78DF82421174B154AFF311548CB
:10478000FFF786F8154B164ACD211648FFF780F83B
:10479000154B164ABF211348FFF77AF87F00FEFF3A
:1047A00020600000406000004404000010801F00F2
:1047B000FF87FFFF3FF8FFFFFFFFBFFFFFFFDFFFA8
:1047C000FFFF7FFF0000E0AFFF7FE0FF2CC3001082
:1047D00090C5001098C2001018C3001070C30010DC
:1047E00064C5001090C30010E8C300104CC5001051
:1047F00010B51720FBF7A6FED024240680231B0447
:104800006362002201211720FBF7D8FD1820FBF777
:1048100099FE80235B046362A3611920FBF792FE7B
:1048200080239B046362636110BD70B5D0242406AD
:1048300080252D04A5611420FCF7A2FE6561FA20F5
:10484000FCF79EFE1820FBF77DFE80235B04A3622D
:1048500070BD000070B584B005000E001400082281
:10486000002102A8FDF74AFF012E18D03607802349
:10487000DB053343E2020D4C224013430422134371
:104880005BBA02930823009302AB00212800FFF7D4
:104890007FFC002801D1039840BA04B070BD8A2182
:1048A000034B044AFF310448FEF7F2FF00F8FF0F04
:1048B000FCC30010A4C5001098C2001010B588B049
:1048C0000B001100012B1DD000241B078022D205F4
:1048D0001A43C9020D4B19400A4304210A430292AC
:1048E00023000833009302AB04220021FFF750FCA1
:1048F000002805D1002C07D005239B0002AA985858
:1049000008B010BD1024E0E70123F6E700F8FF0F20
:1049100010B588B00B001100012B1DD000241B071F
:104920008022D2051A43C9020D4B19400A430221C5
:104930000A43029223000833009302AB04220021B1
:10494000FFF726FC002805D1002C07D005239B008B
:1049500002AA985808B010BD1024E0E70123F6E73A
:1049600000F8FF0F10B588B00B001100012B1DD00F
:1049700000241B078022D2051A43C9020D4B19409F
:104980000A4301210A43029223000833009302AB39
:1049900004220021FFF7FCFB002805D1002C07D0E2
:1049A00005239B0002AA985808B010BD1024E0E728
:1049B0000123F6E700F8FF0F10B584B00C07C02103
:1049C00009062143D202084C22400A4304210A432B
:1049D00052BA02925BBA039300230093082202A901
:1049E000FFF7D6FB04B010BD00F8FF0F30B585B05F
:1049F0000D07C02424062C43D2020E4D2A40224328
:104A00000424224302920393012907D00023009338
:104A1000082202A9FFF7BCFB05B030BD06490434EB
:104A2000445008394250054A8350054B8268C250B1
:104A3000ECE7C04600F8FF0F5808000054080000DB
:104A40005C08000030B585B00D07C02424062C4357
:104A5000D2020E4D2A4022430224224302920393A3
:104A6000012907D000230093082202A9FFF790FB39
:104A700005B030BD06490634445008394250054A55
:104A80008350054B8268C250ECE7C04600F8FF0F28
:104A900058080000540800005C08000030B585B0DC
:104AA0000D07C02424062C43D2020E4D2A40224377
:104AB0000124224302920393012907D0002300938B
:104AC000082202A9FFF764FB05B030BD0649073490
:104AD000445008394250054A8350054B8268C25001
:104AE000ECE7C04600F8FF0F58080000540800002B
:104AF0005C080000F0B5D6464F464646C0B582B0C9
:104B000090461D000A9C012943D001294AD0002764
:104B1000EB1C0322934399465E1EFF22D20096426D
:104B200042D206002836A64204D003D8294BC21828
:104B3000A24240D8002F45D000239A460B0780217F
:104B4000C90519434346DB029846234B9C4643461E
:104B50006246134019432943524604329200821898
:104B6000131D51604F440437009704220021FFF7C2
:104B70000FFB071E29D1A64204D02A0031002000D5
:104B8000FDF7C2FD380002B01CBC90469946A24613
:104B9000F0BD402BB9D9ED31104B114AFF3111480E
:104BA000FEF776FE1027B3E7F8210F4B0C4A4900B9
:104BB0000C48FEF76DFEF2210C4B094AFF31094803
:104BC000FEF766FE04239A46B8E701000848FEF7A0
:104BD000CFFFD7E72808000000F8FF0F18C4001027
:104BE000B8C5001098C2001058C4001080C400104E
:104BF000E4C40010F0B5D646474680B583B0050042
:104C00000F0090469A46012934D05346DE1C0323F8
:104C10009E43721EFF23DB009A4234D2022F38D00B
:104C2000280028300A9B984248D00A9B984204D812
:104C3000304BEB180A9A934255D83907C0273F06E4
:104C40000F434346DA022C4B1A40174353461F4387
:104C50006F6252460A99FDF757FD29002431321D33
:104C6000002300932800FFF793FA03B00CBC904692
:104C70009A46F0BD402BC8D98221204B204A89009A
:104C80002048FEF705FE204B1D4A20491D48FEF72F
:104C9000FFFDFA24A4002000013C002806DD0822C4
:104CA00000212800FFF70AFE8306F4D5002CB7DCAC
:104CB0001748FEF72EFF06204042D6E73F07C023E5
:104CC0001B063B434246D2020B4F3A401343524627
:104CD0001A436A6229002431321D00230093280000
:104CE000FFF756FAC1E789210A4B054A89000548B2
:104CF000FEF7CEFD2808000000F8FF0F18C40010D2
:104D0000CCC5001098C2001058C400100A02000060
:104D1000B8CA001000C50010012805D0022801D033
:104D2000002070470148FCE70148FAE700401018EE
:104D300000301018F8B507000C0016001D000B8895
:104D40004988C9430904090C8B4225D10B2B29D969
:104D5000817B227A91422BD1237ABB7362790F2314
:104D60001340022B06D8627A7B7BD31ADBB2142B5A
:104D700000D87A7320880C281ED062790F23134044
:104D8000012B52D0022B39D0002B1BD03F48FEF70D
:104D9000C0FE0B204042F8BD3D48FEF7BAFE02209F
:104DA0004042F8E73B48FEF7B4FE03204042F2E7FA
:104DB0003948FEF7DDFECFE73848FEF7AAFE0420AB
:104DC0004042E8E71B280DD9E379E3185A8911001E
:104DD0003A8A8A420CD110331C1B001B30602B60B6
:104DE0000020D8E72E48FEF794FE05204042D2E787
:104DF0002C48FEF7BDFE06204042CCE710280ED915
:104E0000E379E3189A78D978890004315B181C1B80
:104E1000041BD007204330602B600220BBE72248F0
:104E2000FEF777FE07204042B5E710281CD9E3794A
:104E3000E318DA78920004329B181C1B041B1A7BBF
:104E4000882A1DD15A7B6C2A1DD1DA7C002A11D107
:104E50001A7D102A0ED15A7D182A0BD1183C3460C5
:104E600018332B60012096E71048FEF752FE082009
:104E7000404290E70E48FEF74CFE0A2040428AE787
:104E80000920404287E70920404284E70CC7001010
:104E9000F4C500100CC6001028C6001050C6001043
:104EA00070C6001094C60010BCC60010DCC600100E
:104EB000FCC60010F8B5CE46474680B50700B023C3
:104EC000C35AB42286589A19016C8A4207D8040042
:104ED0003C34E418A61900239946984606E00123BD
:104EE0005B4283602DE0A04602356419B44212D2C1
:104EF00022786578AB1CE318B342F5D8302AF2D09B
:104F0000DD2AF1D1A01CD93A104905F015FF00287F
:104F1000EAD1A146E8E74346002B00D004234A46E5
:104F2000002A01D0022213434C22BA5AD20601D5DC
:104F3000012213438421785AFF2202407A528822A8
:104F4000BB540CBC90469946F8BDC046E0CA001060
:104F5000F8B58E1E033080080A003300002807D001
:104F6000148855882D042C4310C304320138F5E70A
:104F70008C1E0B881A021B0A13430B8061680A0EF1
:104F80000B0AFF273F023B401A430B02FF252D046B
:104F90002B401A4309060A436260A068010E030A07
:104FA0003B40194303022B40194300060143A16013
:104FB000E068030E9C46030A3B4067463B430702FA
:104FC0003D402B4300060343E360452A01D03000F7
:104FD000F8BD0829FBD13000FFF76CFFF7E70000B0
:104FE000F8B5CE46474680B505008946002916D15A
:104FF000002426001E4F23003A0001212800FFF75D
:105000004DFD23003A0001212800FFF747FD4B46E4
:10501000002B06D003239846032700240FE0012429
:10502000E7E7012398460027F7E7012001F080FE1B
:1050300033000F4A01212800FFF730FD01343F2CD7
:105040000DDC0B4A01212800FFF78CFC0028ECDB6B
:1050500043460340BB42E8D1FF28E6D003E049467F
:105060000448FEF785FD0CBC90469946F8BDC04645
:105070001F0001001CC7001010B501235940C9B220
:10508000FFF7AEFF10BD000010B5012906D1012BBE
:105090000BD0042B0CD1FFF711FC10BD9F21084B46
:1050A000084A49000848FEF7F3FBFFF75BFCF4E70A
:1050B000A121064B034A49000348FEF7E9FBC0461D
:1050C00040C700105CCB00105CC70010A4C70010E4
:1050D00010B5012907D1012B0CD0042B0ED1029B56
:1050E000FFF784FC10BDA421084B094A4900094878
:1050F000FEF7CEFB029BFFF7D1FCF3E7A621064BA0
:10510000034A49000348FEF7C3FBC04640C70010EE
:105110006CCB00105CC70010A4C7001030B583B082
:105120000500CC0BE4038368A3420FD063401B0E41
:105130000ED1AB686340FF221204134210D1AB685A
:105140006340FF221202134213D1AC6003B030BDA2
:10515000230E009301230B4A0121FFF7B9FFE8E773
:10516000230C00930123084A01212800FFF7B0FF18
:10517000E5E7230A00930123044A01212800FFF7F1
:10518000A7FFE2E70C0001000B0001000A0001008C
:1051900070B505000C001600FFF7C0FF6404640C36
:1051A000802212022243330001212800FFF76CFF06
:1051B0000400C02149052800FFF7B0FF200070BDA2
:1051C00070B504000800FFF7A7FD80231B01C51878
:1051D000012229002000FFF7DBFF01222900200027
:1051E000FFF7D6FFC30701D5002070BD0248FEF7C8
:1051F00090FC06204042F8E7B0C7001070B50500EB
:105200000800FFF789FD04008123DB00C11801229B
:105210002800FFF7BDFF03230340012B09D18023A2
:105220001B01E11801222800FFF7B2FFC30704D4D5
:1052300070BD0448FEF76DFCF1E70248FEF769FC1B
:10524000F6E7C046CCC70010F0B5DE4657464E46DE
:105250004546E0B583B08046894617009A46D31C80
:1052600003229343BB4201D1002422E0CF211D4BF6
:105270001D4A49001D48FEF70BFB3B1B9B464B4656
:10528000E1184D046D0C5B46EA1880231B029A421C
:1052900018D84046FFF742FF5444802212022A43A6
:1052A00000945B4601214046FFF7A4FC002811D181
:1052B0003400BC420DD226004036BE42DDD8402329
:1052C0009B46DCE7D8210A4B074A49000748FEF70E
:1052D000DFFA002003B03CBC90469946A246AB469C
:1052E000F0BDC046E0C700107CCB00105CC70010CA
:1052F00004C80010F0B583B005000C0016001F00B4
:10530000FFF70CFF6404640C802212022243009712
:10531000330001212800FFF7DBFEC02149052800EA
:10532000FFF7FCFE03B0F0BDF8B504000D00160059
:10533000FFF746FF2800FFF7EFFC05008123DB00A5
:10534000C718002E26D02323012239002000FFF7A2
:10535000D1FF012239002000FFF71AFF80231B0133
:10536000E918002301222000FFF7C4FF012001F00B
:10537000DFFC002E10D02123012239002000FFF78E
:10538000B9FF012239002000FFF702FF012001F0E0
:10539000CFFCF8BD0323D7E70123EDE7F0B5C64600
:1053A00000B58918164BCF18164BFA5C164BFB5CF0
:1053B0001B021A439046FA235B009A4216D2134B03
:1053C000FB5C002B12D15026B0450FDD0F4CA41B07
:1053D0003C1909220E49200005F07EFD051E01D072
:1053E0000136F1E72000FEF794FB04E00948FEF7E0
:1053F00090FB06256D42280004BC9046F0BDC046D7
:10540000E0FCFFFF0E0300000F0300000D0300008F
:105410004CC8001058C8001001600023836003735B
:10542000012242738373038200228274C274014A90
:10543000835070474C08000010B5FEF791FD10BD79
:1054400010B50400002909D0837C002B00D110BDC9
:10545000002383740121FFF70FFEF8E700F0AEFE92
:10546000A37C002BF3D100212000FFF705FE0123D0
:10547000A374ECE7F0B585B0070003911500C37C79
:10548000002B05D1006800F091FE002800D189E0D2
:1054900000213800FFF7D4FFFB7C002B0ED0002644
:1054A0000020FA239B009E422CDA082200213800BB
:1054B000FFF704FA431C25D10136F2E7042200214C
:1054C0003800FFF725FA060084B2394B1B88A34247
:1054D00004D00104090C86230B4208D1002C0AD108
:1054E000334B1C80B306DAD40120404236E0314809
:1054F000FEF73EFBF2E72300042200213800FFF70D
:10550000A1FAEDE7431C50D0C30538D5430A5B052B
:105510005B0D591EC022D200914221D282071FD4B6
:105520003E0028360096002202213800FFF7E2FAFA
:10553000002813D1398D002902D17B8D002B23D077
:105540000123FB747A8D080050401B4B984223D1F5
:105550002B00039A31003800FFF7ECFB05B0F0BDDB
:1055600019001648FEF704FB0123154A01213800F3
:10557000FFF794FA0023FB7401204042EEE700237A
:10558000FB7401204042E9E70E48FEF7C2FA00230F
:10559000FB7401204042E1E70B48FEF7E9FA0120E5
:1055A0004042DBE701204042D8E701204042D5E7F6
:1055B0004A16022080C80010FFFF0000ACC800108F
:1055C0000D000100CCC80010E8C8001010B582B072
:1055D000040015E001990098FFF7BAFC01002000D3
:1055E00000F0F2FD0CE0009AD10F52005208019B2E
:1055F000206801F0C6FB03E001000B48FEF7B8FA93
:1056000001AA69462000FFF735FF431C09D0031D9E
:10561000F6D00128DED00228E5D003000933EFD010
:10562000EAE702B010BDC04614C90010F0B5D64676
:105630004F464646C0B584B005008A469146984616
:10564000002901D002296ED100212800FFF7F8FEC1
:10565000AB7B002B31D16A7B2B7B9A422DD04B4602
:105660000C339BB242461380DB4353802B7B137178
:10567000434652465A710023424693715346022BC9
:105680004FD00C234246D37100231372537293728E
:10569000D3722B7B01332B734B460F33032293437F
:1056A00042460092002202212800FFF7A3FA04B02C
:1056B0001CBC90469946A246F0BD1C4B9F6A1C4BF1
:1056C000FE1810E003990298FFF742FC0100280041
:1056D00000F07AFD15E0E41B164B9C4219D8FA2025
:1056E000800001F0F1FA114B9C6AA21B124B9A4206
:1056F00000D9260003AA02A92800FFF7BBFE012853
:10570000E0D0A97B0029E6D16A7B2B7B9A42E2D0CC
:10571000A5E72A7B6B7B0948FEF72AFA0220404264
:10572000C5E70C33AEE705204042C0E70040054026
:105730006079FEFF40420F009F86010030C90010D3
:10574000F8B506001F0018001C3080231B0198428A
:105750001ED8358A0135ACB2348224040C43079B31
:1057600019030C4372633B041B0CB363F463002303
:105770003364300044303A00069905F005FB3300ED
:1057800028333A00103200213000FFF74FFFF8BDF8
:1057900005204042FBE70000F0B5CE46474680B505
:1057A00085B00500894690461E000D9B01930C9B19
:1057B00000933300FFF7C4FF041E40D1234B9F6AC0
:1057C00014E0029AB24200D9320003990C9805F015
:1057D000DBFA34E003990298FFF7BAFB01002800D6
:1057E00000F0F2FCFA20800001F06EFA174B9C6A80
:1057F000E41B174B9C421AD803AA02A92800FFF702
:1058000039FE041EDDD00128E4D0022806D000288D
:10581000E8DB01000F48FEF7ABF9E3E7029AD10F8E
:1058200052005208039B286801F0ABFADAE7330014
:10583000424649460848FEF79BF90224644220008C
:1058400005B00CBC90469946F0BDC04600400540EE
:105850003F420F0054C9001080C9001030B583B01A
:1058600014004D004A0802212940069D019500932D
:105870002300FFF791FF03B030BD0000F0B5DE4616
:1058800057464E464546E0B583B005008A469046E9
:10589000442399468144002629E02C4F2DE004231F
:1058A0001F43BFB243469C1B294908220831484682
:1058B000FCF72AFF4C23EF5202330222EA522C65F6
:1058C00000276F6528005830310051442200FCF752
:1058D0001BFF23001B3307229343013201974946E4
:1058E0000091FF3202212800FFF756FF5E46464531
:1058F0000CD2002ED1D080277F018023DB009B4675
:10590000B344C345CBD28024E400CDE71049132231
:1059100014314846FCF7F8FE8322002301934B46DE
:1059200000931323520000212800FFF735FF6B6C12
:10593000002B06D103B03CBC90469946A246AB462C
:10594000F0BD0448FEF7E5F8F4E7C0460210000099
:10595000E0CA0010A8C90010F0B5D6464F4646462A
:10596000C0B582B007008A46140099464423984681
:105970008044080005F07CFA0600451C2A005146C8
:105980004046FCF7C1FE45442C70230A6B70230C83
:10599000AB70240EEC70731D0822494601914146FC
:1059A0000091FF3202213800FFF7F6FE02B01CBC66
:1059B00090469946A246F0BDF0B5CE46474680B522
:1059C00083B0050088461600994607004437080052
:1059D00005F04EFA441C38193200494605F0D4F956
:1059E000220041463800FCF78FFEA31908220A99CD
:1059F00001910097FF3202212800FFF7CDFE03B08E
:105A00000CBC90469946F0BD70B582B00400443499
:105A100044254255160A01354655160C01354655A2
:105A2000120E013542550193009404230A0002210D
:105A3000FFF7B2FE02B070BDF0B5D6464F464646FF
:105A4000C0B582B080468A4615001C0044234344FA
:105A50009946080005F00CFA0600471C3A0051462A
:105A60004846FCF751FE4F443D702A0A7A702A0CD2
:105A7000BA702D0EFD70721D4A441470230A5370C3
:105A8000230C9370240ED4703300093308220A9932
:105A9000019149460091FF3202214046FFF77CFE0A
:105AA00002B01CBC90469946A246F0BD70B582B0CB
:105AB00004000D00060044360D4914223C3130002C
:105AC000FCF722FE83220023019300961433520038
:105AD00000212000FFF760FE041E02D0200002B06B
