:020000041000EA
:1000000000B5324B212058609868022188439860DF
:10001000D860186158612E4B002199600221596106
:100020000121F02299502B49196001219960352056
:1000300000F044F80222904214D00621196600F024
:1000400034F8196E01211966002018661A6600F04E
:100050002CF8196E196E196E052000F02FF8012189
:100060000842F9D1002199601B49196000215960AB
:100070001A491B48016001219960EB211966A021F2
:10008000196600F012F800219960164914480160C1
:100090000121996001BC002800D000471248134993
:1000A000086003C880F30888084703B5996A0420EC
:1000B0000142FBD001200142F8D103BD02B5186610
:1000C0001866FFF7F2FF186E186E02BD00000240BE
:1000D000000000180000070000035F00212200005C
:1000E000F4000018222000A00001001008ED00E03C
:1000F00000000000000000000000000074B24E7A12
:1001000000200420F7010010C3010010C5010010F9
:10011000C1010010C1010010C1010010C101001097
:10012000C1010010C1010010C1010010C701001081
:10013000C1010010C1010010C9010010CB01001065
:10014000CD010010CD010010CD010010CD01001037
:10015000CD010010CD010010CD010010CD01001027
:10016000CD010010CD010010CD010010CD01001017
:10017000CD010010CD010010CD010010CD01001007
:10018000CD010010CD010010CD010010CD010010F7
:10019000CD010010CD010010CD010010CD010010E7
:1001A000CD010010CD010010CD010010CD010010D7
:1001B000CD010010CD010010CD010010CD010010C7
:1001C00000BE00BE00BE00BE00BE00BEEFF3058054
:1001D000103800BEF2EB8871F83C0410203D04108A
:1001E0003802001090A31AE71E481F49086006C88D
:1001F00081F3088810471D480068002801D019487D
:10020000F3E70DA40ECC002902D000F012F8F9E7B4
:100210001749184A002000E001C19142FCD116495B
:100220008847164988471649884700BEFDE701C937
:1002300001C29A42FBD37047203D0410C000002049
:10024000F80D0020584A041000000420000004208B
:10025000584A041000100420001004200000000080
:10026000704700000000000008ED00E0000000D032
:10027000F80D0020A8200220953C00104503001036
:100280008D3C0010F8B5C0460448054B10B58342BC
:1002900003D0044B002B00D0984710BDF80D002070
:1002A000F80D00200000000006480749091A8B10CD
:1002B000C90FC91810B5491003D0044B002B00D04A
:1002C000984710BDF80D0020F80D00200000000038
:1002D00010B5074C2378002B09D1FFF7D5FF054B4C
:1002E000002B02D0044800E000BF0123237010BDA2
:1002F000C80F00200000000000C00010054B10B522
:10030000002B03D00449054800E000BFFFF7CCFFF5
:1003100010BDC04600000000CC0F002000C000103F
:1003200010B50121002003F0C7FFFA2080000AF079
:100330006BFC0021002003F0BFFFFA2080000AF0D0
:1003400063FCEEE700B583B003F0D6FD03F0C4FF15
:1003500000280CD10123802208490190009352000B
:10036000002307480AF040F90AF0D2FAFEE70548F0
:1003700003F014FE0120404203B000BD14C0001081
:100380002103001000C0001010B54024084A83006B
:100390009A181268C0005440C0222240054CA4465E
:1003A00063441A60044B9C466044416010BDC046E3
:1003B00004C0014004D00140004001400B4B8000CC
:1003C0009C46604400290ED100230431002A00D14C
:1003D0001900802203685201594094460C2360445E
:1003E0000B40036070470C210823EFE704C0014075
:1003F0008000002905D0064B9C4602236044036020
:100400007047044B9C46022360440360F8E7C046F3
:1004100004E0014004F00140D0231B061B6830B506
:100420005C1EA341050010485C428446072030232F
:10043000284023408000EC08814020000B4D3C30D8
:1004400063448000A40041511B19002A05D080227A
:10045000920194466344196030BDC02292019446D3
:1004600063441960F8E7C046004101400040014084
:10047000D023F0B5C64604001B0698461B680C4FF7
:100480009B00F8580D00160000B5044209D1320057
:10049000290004430D20FC5000F086F904BC90466E
:1004A000F0BD01F03BFB43461B689B00F858EEE7AC
:1004B0004414002010B504000D2000F057FAD0239A
:1004C0001B061B6802499B005A58A2435A5010BD94
:1004D000441400200123D02283404021120693625D
:1004E0009361094A83009A181268C0005140C022E3
:1004F0000A4006498C4663441A60054B9C46052316
:10050000604443607047C04604C0014004D00140CD
:10051000004001400FB400B5084883B003F03EFD31
:10052000049B002B07D005A91800019103F07AFB6A
:10053000034803F033FD012003F08CFB20C00010C2
:10054000E8C4001010B50148FFF7E4FF30C0001008
:10055000EFF3108072B6034A1368002BFCD0BFF390
:100560005F8F70472C0100D0BFF35F8F0022024BDA
:100570001A6080F3108870472C0100D0F8B5EFF3B3
:10058000108772B60E4E3368002BFCD0BFF35F8F1E
:10059000CB08C4180725A446C45C01230D40AB401A
:1005A00018002040234208D1624623431370BFF352
:1005B0005F8F306087F31088F8BD1000FFF7AAFF47
:1005C0002C0100D0F8B5CE4647468C4680B5EFF3F7
:1005D000108872B6214D2C68002CFCD0BFF35F8FC1
:1005E0009A422CD8D4080721055D06190124114030
:1005F0008C402C421FD007218946063909E0D408D7
:10060000055D06194C460F001440A7403C002F42E0
:1006100011D001329342F2D201204042BFF35F8FEA
:1006200000220E4B1A6088F3108800280FDB0CBCE8
:1006300090469946F8BD2C4310003470EEE7BFF3A6
:100640005F8F00232B6088F31088012040426346AF
:10065000002BECD00898FFF75DFFC0462C0100D0BE
:1006600070B5EFF3108672B60A4C2368002BFCD0ED
:10067000BFF35F8F07230122CD0819408A40435DF5
:1006800093434355BFF35F8F0023236086F31088A5
:1006900070BDC0462C0100D0044A1078431CDBB268
:1006A000172B00D9102313707047C046D8040020C0
:1006B00010B50100024A0348FFF760FF10BDC046B5
:1006C00040C00010541100200021044B044ABFF325
:1006D0005F8F02C39342FAD17047C046000100D039
:1006E000800100D0054B064A1360064A1360536030
:1006F0009360D36013615361936170478080808001
:1007000000E400E004E400E01F2318401E3B8340A7
:10071000002905D0C021044A490053501360704796
:10072000802201498B50FAE700E100E0012282407B
:10073000034B1B681340581E8341D8B27047C04614
:1007400000E100E001238340014A13607047C04686
:1007500000E200E070B50D00EFF3108672B60F4AAC
:100760001368002BFCD0BFF35F8F0D4B10309B68DC
:1007700084001B590B4A934203D09D4201D001F0E3
:10078000CDF9074B9B681D51BFF35F8FBFF35F8FA0
:100790000022024B1A6086F3108870BD240100D03D
:1007A00000ED00E0CD010010F0B557464E4645463D
:1007B000DE46E0B5894683B005001700EFF3108AE6
:1007C00072B65E4A1368002BFCD0BFF35F8F002027
:1007D0005B4B18569B46002800DA6CE05A464400F2
:1007E000584E2418A400331998469B79103513707D
:1007F000554BAA009B6801929B589C469B1B2F2B34
:1008000028D8012261469143CB79BB4208D86AE0DF
:1008100053009B189B00F318DD79BD4251D9190094
:1008200006228A56002AF3DA0B1D9B46474E4346A2
:100830005C46043B1B1B1B05454C5B0D23438B8017
:10084000887141468A714A46424B8E800B60CF7157
:100850008A601BE0404B9C4542D142463F4B0234EC
:1008600013803F4B3619043B9E1B3605384B760DE3
:100870001E433C4B56809380FF23D77193714346B0
:100880004A469A60012342461A43944661462E4BDB
:10089000019A9B689950BFF35F8FBFF35F8F00226F
:1008A000264B1A608AF3108803B03CBC90469946E8
:1008B000A246AB46F0BD01F031F95B460020185668
:1008C0008CE70B1D9B468B8804345B051B155B4432
:1008D00036199E1BE0233605760D1B021E43A6E744
:1008E00001F01CF9B9E745460B001F489B1B5B4113
:1008F0005843000D194B2B80A31C9C46B4446546FD
:10090000174B0434043B5B1B1B05114D5B0DAC46C0
:100910002B43454636196B800B1F9E1B6346A871FF
:1009200048463605760D1E430A4BAE80EF71A8602F
:100930000B60434613439C46A8E7C046240100D001
:1009400061150220DC04002000ED00E001BD000084
:1009500000E0FFFF01488047CD01001000A1FFFF2C
:100960000C05002001BDFFFFAAAA0000F0B5DE467D
:1009700057464E464546E0B50C0083B0EFF310896C
:1009800072B65F4A1368002BFCD0BFF35F8F5D4BDC
:100990009A68030010339F00D5595B4A90469542F0
:1009A0003DD0A5424ED0594EAA1B2F2A37D8584ABF
:1009B0009346126894460122614692468240114055
:1009C0001F22104052468240924601918022514699
:1009D00058468150BFF35F8FEFF305829346002A9C
:1009E00032D101232A009A439068844208D17DE0E5
:1009F0004B005B189B00F318986884422ED01A00B5
:100A0000062151560029F3DA84424ED0019B002B77
:100A10001FD0C02251463E4B520099501960394BAD
:100A20009B68DD51BFF35F8FBFF35F8F0022344BB4
:100A30001A6089F3108803B03CBC90469946A246E0
:100A4000AB46F0BD1500EAE79342CAD001F066F864
:100A5000C7E7802351462E4AD150E0E70621595678
:100A6000002923DB4A005018800034188046A06813
:100A70009860E079D871062020569871A0797F2877
:100A800025D8A488F01A6405241544440019E024EC
:100A90000005400D24022043988052181D4B9200FF
:100AA000B6181A781970B271B0E7130059460029C8
:100AB0000FD1FF3191711849918016490A789A71C6
:100AC000164A9B1B5B415A43120D0A709EE714485D
:100AD000E2E7144A1449D21A083A5002400D014381
:100AE0009980124952080A43DA808FE7062151564D
:100AF00013000029B6DA5A46002AEAD14546DCE757
:100B0000240100D000ED00E0CD010010DC04002045
:100B100000E100E06115022001BDFFFFAAAA00006C
:100B200001BD00001605002000F0FFFF00F8FFFFE8
:100B300010B58308040003202040FF24054AC000AC
:100B40009446844081409B0063441A68A2430A4350
:100B50001A6010BD00E400E0F0B501240443EFF397
:100B60000581EFF3108672B6214A1368002BFCD082
:100B7000BFF35F8F1F4B05001F4AED1A6D416A439B
:100B8000120D1E4D8900AF6852B27F58A7421CD08B
:100B90000621595691421CD012215956914222D019
:100BA0001E215956914220D02A21595603249142A0
:100BB00010D0134B19781A708171BFF35F8F002228
:100BC0000B4B1A6086F31088F0BDAB680D4C5C507F
:100BD000EFE700246100091989005B18FF21997172
:100BE00009499980E5E70124F4E70224F2E7C046C9
:100BF000240100D0DC040020AAAA000000ED00E0DF
:100C000061150220CD01001001BDFFFF1F2110B5AD
:100C1000091A0248FFF724FD10BDC04662150220E4
:100C200000B5074B83B0010000930022052305485F
:100C3000FFF7C8FC002801DB1F23181A03B000BD12
:100C400060C000106215022070B504000E0015008F
:100C5000FFF722FD0100200000F006F8A680E580E5
:100C6000BFF35F8F70BDC046024B9C466144890054
:100C70000160704740000034F0B5C646164D174E6F
:100C80002C0000B5B54224D20023012798462368E2
:100C90007F42002B11D0FFF7FFFC01002800FFF777
:100CA000E3FF434667602372BFF35F8F0C34B442A7
:100CB0000FD223682500002BEDD1FFF7EDFC0100DA
:100CC0002800FFF7D1FF6760BFF35F8F0834B4429D
:100CD000EFD304BC9046F0BDE80D0020F80D0020D5
:100CE00010B50400FFF7D8FC01002000FFF7BCFF9F
:100CF00001235B42636000232372BFF35F8F10BD4B
:100D0000F0B5DE4657464E464546E0B585B0EFF3B2
:100D10000582032313409A0011000392B64A5258E9
:100D2000904601229A409146B44B1A604B46B44813
:100D30004363434608229B5E9A46002B3EDA4346B5
:100D40009B881BB2002B00DBA2E043469B79002B63
:100D500000D0F4E0434608241C5F002C24DB42460C
:100D60005269630094461B19DB0063449C68DD688C
:100D7000631C00D110E1A248039B84466344826A4D
:100D800019001B69A61A9B1A9E4215D34A46036A8C
:100D90001A4211D09A4800F059FC241A8D41002DB6
:100DA00002DCC3D1002CC1D040BF05B03CBC904692
:100DB0009946A246AB46F0BD0C61EBE7424652694C
:100DC0005B0093465344DB009B445B469E68DF68B0
:100DD00000F03CFC801BB9410029B0DB002F00DA99
:100DE000E5E05B46874A1B69934200D1D8E0414663
:100DF0005A460820085E5288000410435A4651693A
:100E0000984704000D0023002B4300D1CFE0002DB4
:100E100000DBE8E0361BAF4134003D005B469C60E0
:100E2000DD600021595E002900DA88E743465B69EE
:100E300022009C462B0048004018C0006044866891
:100E4000C768921BBB41002B00DA78E74346664631
:100E500002000094019519810CE07B00DB19DB0096
:100E6000F318009801999C68DD68001BA9410029CE
:100E700004DB1A000023D75E002FEEDA5B461F80EA
:100E80005346138043469B881BB2002B00DA5CE775
:100E900043461A69EFF3108172B61368002BFCD039
:100EA000BFF35F8F43469B8842461BB29A4601239D
:100EB0005B4293801369BFF35F8F00221A6081F356
:100EC00010885346002B00DA3FE743465B699C4697
:100ED000082343449B4653465F0043465744FF0064
:100EE00008229A5E67445E46BC68FD68002A19DBEA
:100EF0003B000094019567469C4604E01E000023D9
:100F0000F25E002A0BDB0098019953009B18DB006E
:100F1000FB189C68DD68001BA9410029EEDA6346D6
:100F2000BC461F005346338000217B5E3A809A46C0
:100F3000002BD0DA43469B79002B00D10AE700232F
:100F400042469371434646460821595E08364B1C7B
:100F500000D129E747468C46556902E006004B1C44
:100F600017D04B005B18DB00E8180A00E95E4388E5
:100F70001BB2002BF2DA01235B42DC178360C460F2
:100F80009445ECD031803B89944603803A814B1CD8
:100F9000E7D1B8466446E0E66B1C00D0EBE6F9E624
:100FA0005B465C69200023699847002821D15B4695
:100FB00042461B8813811269EFF3108372B61168E1
:100FC0000029FCD0BFF35F8F4246594652880A8001
:100FD0004246514651801269BFF35F8F0021116074
:100FE00083F31088ABE6064800F030FB24184D412F
:100FF00014E76568246806E7A01100203C700540EE
:1010000000400540010D0010074810B50268EFF3DD
:10101000108172B61368002BFCD0BFF35F8F07F00E
:101020004FFC0020002110BD5814002070B52E4C3C
:101030002569002D04D00A212C48FFF715FE70BD4C
:101040002B4E0321300000F0DFFAE660FFF724FBAF
:10105000284B03229C46D02322701B061B680121CB
:101060006370254B6044A3600F2380002061022041
:10107000638063694942A180198002311986473132
:101080001D83585218315A5275325C3999521832B0
:101090000131995218320131995218320131995265
:1010A000083518329D5202311832995218320131E6
:1010B000995218320131995218320131995218322D
:1010C000013199521832013199520C4B0C49DC60B4
:1010D00001303562FFF73EFB01210320FFF714FBCF
:1010E000084B1D60A7E7C0462405002058140020C7
:1010F0000040054040000034FFFF1000A011002018
:10110000010D00103860054000487047240500209C
:10111000F8B5050018200E0001F0FEF9041E3ED0BF
:101120001821300001F016FA01216061280000F05A
:101130007DFAE5600700FFF7AFFAD02227701206AC
:101140001268184B62709C460122B3B2524260444E
:10115000800063819B1820612281A2806380002E21
:101160000BD0710062698E19F6000F4BB618138010
:10117000013318329BB2B242F9D10126BE400B4B6B
:10118000BA0038000A492E62D450FFF7E3FA012171
:101190003800FFF7B9FA074B9C4665442E602000E3
:1011A000F8BDC04640000034FFFF0000A011002041
:1011B000010D001038200000124B70B50400984259
:1011C0001ED0012205781049AA408C46C36801212F
:1011D0001A6263441A602800FFF796FA0B49280048
:1011E000FFF7C4FB280000F019FA00212378084A11
:1011F00060699B00995001F0CFF9200001F0CCF913
:1012000070BDC0462405002038300000010D0010DC
:10121000A0110020F8B51F0008AB1B7804001600D1
:10122000002B07D100F01AFA32003B00121A8B4152
:10123000002B4CDB2269EFF3108072B61368002B91
:10124000FCD0BFF35F8F62690223E15E94464B00DE
:101250005B18DB006344002901DB1A886280226985
:10126000BFF35F8F0025156080F31088002930DB05
:10127000069A9E60DF601A61079A5A615A880132A5
:101280005204520C151C002A1FD0A8B20A045D801B
:1012900010432569EFF3108672B62A68002AFCD045
:1012A000BFF35F8FA2881A80A1802369BFF35F8F8D
:1012B00000221A6086F31088074923788C46013291
:1012C0009A40E36863441A60F8BD0125DDE7002019
:1012D000FAE701204042F7E73C200000F0B50100AA
:1012E0000469EFF3108772B620680028FCD0BFF3C2
:1012F0005F8F02200D5E48696C0084466419E4002B
:101300006444002D01DB208848800869BFF35F8FAB
:101310000026066087F31088002D2EDBE3606388CB
:101320000598013320615B0406985B0CA260606144
:101330001A1C002B1FD090B22B04628018430A693C
:10134000EFF3108672B61368002BFCD0BFF35F8FEB
:101350008B8823808D800B69BFF35F8F00221A601A
:1013600086F310880B7801329A40CB6804498C468A
:1013700063441A60F0BD0122DDE701204042F9E735
:101380003C20000030B543890A14934233DD5300FA
:101390009B184269DB00944604696344EFF31085AF
:1013A00072B62268002AFCD0BFF35F8F5A88090406
:1013B00094B2090C8A4208D00369BFF35F8F002200
:1013C0001A6085F31088002030BD80221202144379
:1013D0005C80012302698371BFF35F8F002111607C
:1013E00085F31088054902788C469340C268012035
:1013F00062441360E8E70020E6E7C0463C200000B6
:1014000040787047F0B54746CE46040080B50D00E1
:1014100096267642F71736196F4183B08F4215D85A
:1014200012D000F01BF932003B00121A8B41002B46
:1014300016DC002B40D02000290000F043F903B057
:101440000CBC90469946F0BD8642EAD9002600279A
:1014500000F004F932003B00121A8B41002BE8DD4A
:1014600000F0FCF832003B00121A8B41002B0ADB23
:1014700000230193124B3200009312483B00FFF708
:101480002DFF0028D7DBB846B1460F4F0F4E736AC9
:10149000984504D8B26A9145CDD99845CBD13A68E0
:1014A000EFF3108172B61368002BFCD0BFF35F8F8F
:1014B000380007F0D1F9EAE7002ABCD0D0E7C046EF
:1014C0000910001024050020581400200040054099
:1014D00070B5060000F0C2F8FA2204000D000023E7
:1014E00030000021920000F0C9FF00196941002975
:1014F00002DBFFF787FF70BD012001494042F8E79A
:10150000FFFFFF7FF0B5CE46474680B504000D00D3
:1015100083B0EFF30587002F0DD0364A0020536AC1
:101520008B4203D3926A0130A24250D303B00CBC69
:1015300090469946F0BD304B9846DB689946434645
:1015400048461E7800F082F80B0049460200043637
:10155000B600715820008E1A2900801A99418F42D6
:1015600011DC0ED020BF234A0020536AAB42DDD3EA
:10157000926A0130A242D9D2EB1A581E8341D8B2E6
:10158000D4E78642EED900F069F822002B00121A47
:101590008B41002B20DB00230193184B220000938A
:1015A00040462B00FFF79AFE011E15DD114B2E0061
:1015B0005A6A95421CD89B6AA34217D34046FFF74C
:1015C000E1FE0C4A0020536A9E42AFD8D0E75B1A76
:1015D000581E8341D8B2A9E7064A0020536AAB429D
:1015E000A4D3926A0120A242A0D2C5E79542E5D1D8
:1015F00020BFE3E70040054024050020091000104B
:10160000004870470040054010B5024A0248FEF706
:10161000B5FF10BD88C000105811002010B50100A2
:101620000148FFF71DF810BD5811002000B5054B0B
:1016300083B00093002203230348FEF7C3FF03B0E7
:1016400000BDC046ACC00010581100200300416A24
:101650000A00986A596A8A42FAD17047034B596A5C
:101660000A00986A596A9142FAD1704700400540D1
:1016700070B504000D00124A536A1900966A536A45
:101680008B42FAD13000190024184D41AB4211D8D9
:101690000ED02B000A494A6A9A42FCD307D1084A65
:1016A00002E0516A994202D1916AA142F9D370BD18
:1016B000A642EED9012301246442E5175B42E9E723
:1016C00000400540064A536A9942FCD807D1044BB2
:1016D00002E05A6A914202D19A6A8242F9D3704773
:1016E00000400540F8B5040006200D0000F074F934
:1016F000002843D0364B3749E3185A4253418022E1
:10170000D20394465B421340334A63441360334A26
:10171000136018000A689043FBD12D4B8021E31819
:101720005A4253412E4A5B0049000620995200F06C
:1017300053F92900C00000F011FB0130C3091ED18C
:10174000402701226262A362266BF30722D4E36A78
:10175000244B0620E51800232B60266300F03CF99B
:101760003900800000F0FAFA7022E36A5A407E23C2
:1017700013402B601C4B23630323A364F8BD1B4A57
:1017800093421ED900231A4A1A4F6262A362266B43
:10179000F307DCD5184B144AE3181A60656AA36A8C
:1017A0000620AD01ED1800F017F9144900F0D6FA43
:1017B000AD020100280000F0D1FA0021FFF758FF28
:1017C000C5E74006800E9F011A003F180300B9E7E5
:1017D0000080FCBF08C0004000E0004000F0004076
:1017E000641502202C10000001030000FEFF000021
:1017F000FFFF0000C0FF3F00303000004E0E000031
:10180000F8B54E464546DE465746E0B588460500E3
:101810000A991800160000F0A1FA0A9B6C001F023A
:10182000324B64199C46A4006444636881469F421D
:1018300000D967602B1FDBB29A46012B30D9C02339
:1018400080229B01E31812011A60294BAD005959FF
:101850009B4600291BD1226876017240E026802336
:10186000164052465B01E3181E60012A30D98023DE
:1018700080229B01E31812011A605B464A466760AA
:101880005A513CBC90469946A246AB46F8BD5869B1
:1018900000F064FA431C5800C0180338FDD2DAE7A0
:1018A0004346012BCBD1C02303229B01E3181A60CE
:1018B000023AA3681A42FCD0226876015640E02220
:1018C000802316400A4A5B019346E3181E60AD0070
:1018D00042462168514003220A401A6001234246D1
:1018E0009340A2681342FCD0C1E7C046008000408C
:1018F00060110020F0B546469846354B4F469C4651
:10190000D64644002418A40064446368C0B50F00A0
:101910001600FF2B02D880235B006360031FDBB23D
:101920009946012B31D9C02380229B01E318120173
:101930001A60284B850059599A4600291CD1226803
:1019400076017240E026802316404A465B01E31888
:101950001E60012A30D9802380229B01E3181201E6
:101960001A6080235B004246636053465A511CBC98
:1019700090469946A246F0BD586900F0EFF9431C25
:101980005800C0180338FDD2D9E7012FCBD1C023AE
:1019900003229B01E3181A60023AA3681A42FCD0A2
:1019A000226876015640E02280231640094A5B01F6
:1019B0009246E3181E6085000322216879400A40A0
:1019C0001A600123BB40A2681342FCD0C3E7C046A3
:1019D0000080004060110020014B8000C05870471B
:1019E00060110020F8B50400204817001D000E000B
:1019F00000F0B4F90100380000F0B0F9069A2B04A9
:101A0000120313432268002A1FDB194AA21851420D
:101A10004A41802149018C4652420A40154962449C
:101A20000A6015490A60154917000D68AF43FBD1DC
:101A3000134A2660A1182122A0600A602268002AA9
:101A4000FCDAE36008230B60F8BD3F2221680A40FE
:101A5000B242DAD1A2681205120D8242D5D1EE212E
:101A6000E268C9020A409A42CFD1EDE7001BB700F5
:101A70000040FDBF00E0004000F0004008C0004012
:101A8000043000008023024A9B000B43D36270475E
:101A900000800540142310B50100188804331B880A
:101AA000984710BD162310B50100188802331B8813
:101AB000984710BDF0B5C64600B5002916D01423CE
:101AC00004000125984618278900461843462168D6
:101AD00018883B88984701C4431E984140420540FE
:101AE000A642F3D1280004BC9046F0BD0125F9E7D9
:101AF000AA23064A1B0113608D235B00D3600449AF
:101B0000044B19605368002BFCDA70470040024018
:101B100000B0FA00006002407047C04610B50148AE
:101B2000FEF7F8FCC0C0001070B5074B074C9C4294
:101B300009D2013B1D1BAD080135AD002D1908CCA4
:101B40009847AC42FBD170BDF4BF0010B8BF001085
:101B500070B5074B074C9C4209D2013B1D1BAD08D9
:101B60000135AD00651908CC9847AC42FBD170BD7A
:101B7000F4BF0010ECBF0010054B064A06491A607E
:101B8000064A074B1A6010000B689843FBD1704758
:101B900000E00040BFCDFBFE08C00040FE7F3C00DF
:101BA00000F00040044BDB6C002B03D18022034B80
:101BB000D2021A607047C046000011504C201150EC
:101BC000044A054B1A60054A1368DB018033FBD1D8
:101BD0007047C046FFFFFF0100F0004008C0004012
:101BE0004022034B9A675A671A67DA667047C04605
:101BF00000F0014010B5FEF767FD10BD70B5044D53
:101C0000044C2800C022A16800F0E4FCA56070BD6F
:101C10000000002000ED00E0002310B5294C82B048
:101C2000A367FFF765FF0122274B1A60636C012B46
:101C3000FCD10322254B1A60224A936B012BFCD165
:101C4000013300930121224A22480433FFF7CAFEE0
:101C5000052301210093204A2048FFF7C3FE0022FC
:101C6000022104201E4BFFF745FE00220121052022
:101C70001C4BFFF73FFE0022002107201A4BFFF705
:101C800039FE002200210820174BFFF733FE802386
:101C9000DB000093002200210920134BFFF7B0FD69
:101CA0000022104B00210620FFF724FE0420FFF73E
:101CB00093FE0E4900F052F801000020FFF7E2FE0B
:101CC00002B010BD008000403CB0004030B0004089
:101CD000002F685900800240008C864700C00240F7
:101CE000001BB70040597307006CDC0240420F0034
:101CF00001480421014B184740050020B51A001087
:101D0000014B9B681847000040050020124A936F62
:101D10009B0815D29066D166002905D0FFE7FFE742
:101D2000FFE7516F106F704704B580210906C21795
:101D30005140002800D0C8430AF006F9002104BD34
:101D4000F0B5146E556E576F166FFFF7E3FF14660C
:101D5000556657671667F0BD000000D0114A936FB3
:101D60009B0813D210665166002905D0FFE7FFE7F4
:101D7000FFE7516F106F704704B5002801D00020B5
:101D8000C0430AF0E1F8002104BDC046F0B5146E6E
:101D9000556E576F166FFFF7E5FF14665566576768
:101DA0001667F0BD000000D094464A4A926F920830
:101DB000624601D228E0C046F0B5464E346E756EDC
:101DC000776F366F00F020F89446424A14665566E5
:101DD000576716676246F0BD94463E4A926F920876
:101DE000624601D254E0C046F0B53A4E346E756E8C
:101DF000776F366F00F04CF89446364A1466556695
:101E0000576716676246F0BD002B24DB11D000290E
:101E10003EDA00B5C943404200D1013100F038F844
:101E2000C943404200D10131DB43524200D101336A
:101E300000BD002AEBD1002801D1002905D00020E7
:101E4000C90FC90701D1C043410800B50AF06CF8B9
:101E50000022002300BD00B500290ADBDB4352420B
:101E600000D1013300F014F8C943404200D10131E0
:101E700000BDC943404200D10131DB43524200D191
:101E8000013300F005F8DB43524200D1013300BDBD
:101E9000002923D1002B18D1002A0CD0BC460D4FAD
:101EA00038667A6600210023FFE7FFE7FFE77A6FD5
:101EB000386F67467047002801D00748010000B519
:101EC0000AF032F80022002300BD02000B000020BF
:101ED00000217047000000D0FFFFFFFF002B00D063
:101EE000BFE0130C28D1002AE7D080B4114F396627
:101EF0007A66FFE7FFE730B4040C7B6F396F1B0491
:101F000023433B667A66FFE7FFE7FFE7C04684B2FC
:101F10007B6F3D6F1B0423433B667A66FFE7FFE759
:101F2000C04600232C042D0C7A6F386F00196941CC
:101F3000B0BC7047000000D0F0B594460025140EE8
:101F400001D112020835140F01D112010435940F8A
:101F500001D192000235D40F01D152000135D40BCA
:101F60000134254F7C66254C3C660E0C93B2FFE78E
:101F7000FFE7FFE73C6F6643360C7703BE467343CB
:101F8000DF0B5B04C01AB941130C7343DB18C91A89
:101F9000CE086643360CB64493B273431F0F1B0141
:101FA000C01AB941130C73431F0B1B05C01AB9416A
:101FB000860D8F023E436643360C092D24DB520A00
:101FC0007243801A7703460A6643360C16235B1B5E
:101FD000DE40DF40BF1964466643821B704604350D
:101FE00006330100D940A840C01900D30131A242F4
:101FF00006D20023F0BD0000000000D0FFFFFFFF6D
:10200000121B0130F3D3F1E709277F1BFE40644622
:10201000A2B27243801A00D20139220C7243130C0F
:102020001204821A99410B007046043513370100DF
:10203000F940A840801900D30131002B02D1A242FF
:102040000AD2F0BD013000D30131121BFAD2013B9C
:10205000F8D1A24200D2F0BD013000D30131121BF1
:10206000F7E7F0B51C0C00D080E00CB400251C0A8A
:1020700004D11B02160E3343120208351C0B04D187
:102080001B01160F3343120104359C0B04D19B0036
:10209000960F334392000235DC0B02D192185B415C
:1020A00001351C00971864410134464F7C66464C4C
:1020B0003C660E0CFFE7FFE7FFE7C0463C6F664358
:1020C000360C7703BE4697B27743C01B00D2013966
:1020D000C01B00D201399FB27743C91BC91B170C23
:1020E00077437E04FF0B801BB941CE086643360C54
:1020F0000C2D33DBB644120B1F053A431B0B97B272
:102100007743C01B00D201399FB27743C91B170C1C
:1021100077433E043F0C801BB941860D8F023E433E
:10212000664329277F1BFE400C3D7746AF40BF1911
:1021300030BCA2B2ABB272437343801A9941220CF5
:102140007243130C1204801A994102000B000137EC
:10215000001BA941F9D2781E0021F0BD0C277F1B7E
:10216000FE4077467F0BAF40FF19E0E700245D1C7F
:1021700007D0144F7D663966FFE7FFE7FFE7FFE70B
:102180003C6F95B29EB265436643401BB141150C4E
:102190001E0C6543664336042F0C3E432D04401B42
:1021A000B141994204D202000B0020000021F0BD91
:1021B00001D19042F7D3801A994101349942F2D368
:1021C000F6E70000000000D0FFFFFFFF484041405D
:1021D000484018B4134B5B68019308BD18B4114B09
:1021E0001B68019308BD94460F4A926F920805D26E
:1021F000624618B40B4BDB68019308BD0A4AF0B580
:10220000146E556E576F166F6246FFF7F2FF064A5F
:102210001466556657671667F0BD18B4014B9B6886
:10222000019308BD68150220000000D0FFB55040A2
:102230004240504059404B40594000E0FFB5154FD7
:102240004C00640D03D0BC4204D10C0314D8002010
:10225000090D09055C00640D03D0BC4204D11C03C8
:102260000AD800221B0D1B0501264B4009D44B4008
:1022700003D58B4200D18242FFBD9942FCD19042EE
:10228000FFBD0B43DB1803431343F5D0C943491883
:10229000FFBD0000FF07000000B5FFF7CFFF804142
:1022A00000BDC04600B5FFF7C9FF01D9002000BD41
:1022B000012000BD00B5FFF7B9FF01D9002000BD26
:1022C000012000BD00B5FFF7B1FF804100BD012036
:1022D00040054A00121804D85A00121801D80020EC
:1022E00070470120704700000021002805D1704789
:1022F000C1174840401AFAD0C90713B5064B1B68EE
:1023000098470CBC441CA2401005120B0349091B42
:1023100009051943114310BD541400201F04000087
:1023200010B54C00620D8023D218DB00D21A5B0579
:102330007E2A10DD9E3A13DACC17090349081943A7
:102340005242D140640001341532202A05DAD040CF
:102350000843604310BD002010BD0846604310BD17
:10236000C80FC018013810BD18B4024B5B6A019346
:1023700008BD00006815022010B50148FEF7CAF834
:10238000CCC00010132370B51D78012D19D014DDB9
:102390002848FFF787FB06002748FFF783FB274CF9
:1023A00080223100200000F015F9022D06D02448CB
:1023B000FFF770FB234B186070BD204C224BA364C9
:1023C000F5E72E001D4C214AA3085B421E401D422A
:1023D0002DD0330022602020B1006118801B0A60DC
:1023E0004A608A60CA600A614A618A61CA610A6297
:1023F0004A628A62CA620A634A638A63CA630A6477
:102400004A648A64CA640A654A658A65CA650A6656
:102410004A668A66CA660A674A674008102802D177
:102420008A67CA67CAE71E339B00E250C6E70023EB
:10243000D1E7C0465344000053460000681502200F
:102440004C33000054140020512400107923001054
:1024500007B5604601880A0A0230DF2AFAD1C9B2FC
:10246000820804D3028840880004104300E000681A
:10247000014A5050039007BD681502205143434361
:10248000C9188C46110C83B24B4310B4040C614341
:1024900092B280B2504362431C041B0C001910BC62
:1024A00059411304120CC018514161447047000097
:1024B00010B50148FEF72EF8C4C40010132310B560
:1024C00010481C78FFF7EEFA0100012C0AD003DD5A
:1024D00080220D4800F07EF80C48FFF7DBFA0C4B29
:1024E000186010BD084C5422200000F073F823003F
:1024F000084A80332168002900D122600434A342B5
:10250000F8D1E9E753460000681602204C3300007A
:1025100054140020B124001070B504000A4E30009D
:1025200009F03AFD200008F0D9FF0500300009F05D
:10253000F3FC002D05D0054B2C199C4201D8280036
:1025400070BD0348FDF7E6FFE80D00200000042001
:10255000E4C00010F8B506000C000C4F380009F07C
:102560001BFD2100300008F07FFF0500380009F056
:10257000D3FC7443002D05D0054B2C199C4201D887
:102580002800F8BD0348FDF7C5FFC046E80D002050
:1025900000000420E4C0001070B50400054D2800C0
:1025A00009F0FAFC200008F0A3FF280009F0B4FCB1
:1025B00070BDC046E80D002001480421014B1847BA
:1025C00050050020B51A0010014B1B681847000089
:1025D00050050020014B5B681847000050050020A3
:1025E0007047C046F8B557464E46DE464546E0B50C
:1025F0001F000A9B05009B460D9B0E0091469246CC
:102600009B0718D10B9B0C9A934214D213000B9A80
:10261000B8469B1A4B444C460F0006001D00220092
:102620004346013439002020B047AC42F7D1AA46D6
:1026300035003E0047460B9B002B38D09A441C00C7
:10264000D04653461A1B5B46013C185D31003B00E7
:10265000A847002CF5D10D9B9B0721D543464A4640
:102660009C1A0C9BA3421BD93A009A464F469146AE
:10267000E2194B46310020200134A8475445F7D3D6
:1026800043460C99DB1B0133B9460022994203D320
:1026900043464A1E4A44D21A434690460133984460
:1026A00040463CBC90469946A246AB46F8BDD04653
:1026B000D1E7C046F0B54F464646D646C0B584B0D1
:1026C00098460EAB1B78129F994694460D9C109B22
:1026D000119EBA0725D4002E69D19C4200D3C2E0D6
:1026E00001223A4092461F2C00D9BBE00C9A551E9D
:1026F000302201E0202C03D001342A55A342F9D81E
:102700005246002A0DD0B4420BD21F2C62D80C9A2C
:10271000551E302201E0202C5CD001342A55B442F1
:10272000F9D1FA0635D57A055DD4002C57D10F9B27
:10273000102B00D17CE00F9B022B00D18DE03023C9
:102740000C9A012413704B46002B27D02D230C9A92
:10275000135501340C9B624600930397434602963F
:102760000194FFF73FFF04B01CBC90469946A24677
:10277000F0BDBB0663D4202CECD00C9B1A1901349D
:1027800078231370202CE5D030220C9B1B191A7073
:102790000134202CDED04B46002BD7D17B0735D41B
:1027A0003B07D7D520230C9A13550134D2E70122D9
:1027B00015003D40AA463A4220D04A46002A2AD176
:1027C0000C323A4227D19C429DD21F2C00D88DE773
:1027D000202E19D92024FA06BCD57A0503D4A342A9
:1027E0001BD0A64219D00F9B102BC2D0022BC9D1EF
:1027F000202CAFD00C9B1B19013440E09C4200D32D
:102800008FE71F2C00D871E720248AE72B230C9A2E
:10281000135501349EE7013ED5E7631E012C00D11C
:1028200085E70F9A102A20D0022A25D01C00ABE79A
:10283000BB060DD478230C9A01241370A4E7202C36
:1028400000D187E758220C9B1B191A70013499E7B5
:1028500058230C9A0124137096E70C9A60330124D4
:10286000137091E7202400265BE7023CBA06E9D406
:102870000C9A12191C0083E70C9A92465344622268
:102880001A707FE710B5002800D110BD01F03AFBA7
:10289000FBE7C0460B0010B5002802D049681B6852
:1028A000984710BDF0B5DE46574645464E46E0B562
:1028B0009BB09B46249B0A909846259B0B910C92BB
:1028C0004046424619009A46FFF701FD002800D015
:1028D000E8E00122404651467F4B5242FFF7F2FCAE
:1028E000002800D0DEE00122404651467B4B524298
:1028F000FFF7D2FC002800D0D4E00022002340469D
:102900005146FFF7C9FC002800D0CAE15346C14632
:1029100009938023289ADB001A400E92289A1A42C3
:1029200001D1062326934C46099B234300D0D9E0CE
:10293000289B002600271B0500D4AEE100230D9341
:10294000269B19000D9B994200DCB0E1C81A431E7A
:1029500026938023289ADB001A430023002528921F
:102960000D93279B0024AB4200D95C1B0223289ABD
:102970001A400E92289A134203D06B426B415B427D
:102980001C400D9B002B07D04846099932003B00A4
:10299000FFF729FC81460991002200234046514659
:1029A000FFF77AFC002805D08020000684460999AC
:1029B00061440991289A4A4B0A9E13404A4604935F
:1029C000269B0B990293099B03940092019330007C
:1029D0005B460C9A884600F0A1F90400002D72D0E5
:1029E000289B220098061F23C017984341465B4648
:1029F0006530B0470D9B671CDA179C18DB0F9846B3
:102A00006B1E99460025544001E0202D13D00AAAE0
:102A100094461F23200063440A2101355E19FFF705
:102A20009DF93031317020000A21FFF797F9260017
:102A30000400092EE9D8052306934B46059300238D
:102A400004930A33039343463A000A9E0B9F029372
:102A500012AB009339005B4630000195FFF72AFE68
:102A60000E9B0400002B2ED00C9B279AC51AAA425D
:102A700029D93C00814698461700434621005A193F
:102A800020205B460135B047AF42F6D84C460C9942
:102A90002798631A01330022984200D30AE10134D7
:102AA000141910E0289B42460493279B0B9903932B
:102AB000269B0A9802935346009201935B460C9A18
:102AC00000F02CF9040020001BB03CBC9046994655
:102AD000A246AB46F0BDC046FFFFEF7FFFFFEFFF12
:102AE000FFF7FFFF764B099D9C466800400D604450
:102AF000FFF7FEFB734A744BFFF78FFB734A744B6F
:102B0000FFF76CFB2B03734A1B0B1A4306000F00E5
:102B1000714B1100484600220995FFF75AFB6F4A96
:102B20006F4BFFF77AFB02000B0030003900FFF714
:102B300055FBFFF7F5FB0D90FFF7DAFB694A6A4B8F
:102B400004000D00FFF769FB0022684BFFF746FB0E
:102B5000FFF7E6FB664A0600664B20002900FFF7F8
:102B60005CFB040030000D000F96FFF7C1FB624ACA
:102B7000624BFFF752FB02000B0020002900FFF719
:102B800028FB02000B0006000F00FFF746FB320097
:102B900004000D003B0030003900FFF71FFB00224E
:102BA00010901191564B20002900FFF71CFB0022CA
:102BB000544BFFF713FB02000B0020002900FFF726
:102BC00012FB0022504BFFF709FB02000B00200014
:102BD0002900FFF708FB0D00802132003B000400B4
:102BE000C9050020FFF7F5FA02000B0020002900BC
:102BF000FFF7F4FA02000B0010981199FFF7F3FAAF
:102C00000022344BFFF7EAFA404A0F9B9446634494
:102C100000221B05FFF701FB06000F0002000B005E
:102C200048460999FFF738FB00280AD00D9B300071
:102C3000013B39000D930022324BFFF7D4FA060016
:102C40000F00C6250D99330063318D42AD4128999F
:102C50006D420435090500D483E63B4300D16FE69D
:102C6000099C484621002A4A2A4BFFF723FB0028EB
:102C700008D0002248462100274BFFF70DFB002813
:102C800000D05DE6269B002B00D16AE60E9B5A1E03
:102C90009341269AD31A269363E6002304250D93C5
:102CA0005FE680231B065344C146099331E60023A7
:102CB00026934EE60A008446013A6244121BEEE671
:102CC00001FCFFFFFB799F501344D33FB3C8608BD7
:102CD000288AC63F0000F03F0000F83F61436F6361
:102CE000A787D23F71A379094F930A400000E03FC4
:102CF0001655B5BBB16B0240EF39FAFE422EE63FE6
:102D000000002C400000244000001840FF03000099
:102D10002D431CEBE2361A3F80842E41F0B54E461F
:102D2000DE4657464546E0B597B09946209E219F1E
:102D3000229B8346984607910C923B00320030005C
:102D40003900FFF7C4FA002800D0C1E101223000A9
:102D50003900CA4B5242FFF79FFA002800D0E0E04A
:102D6000012230003900C64B5242FFF7ABFA00286F
:102D700000D0B6E0002230003900C24BFFF7A2FAC3
:102D8000002800D098E0002230003900BE4BFFF749
:102D900083FA002800D08FE00022002330003900A1
:102DA000FFF77AFA002800D0B0E000230D93249BAF
:102DB0005B0501D40623984608AB9C4617220024E5
:102DC00030234146624404E0013413550139202C7C
:102DD00001D00929F8D8884630003900FFF7A0FA59
:102DE0004346DA00A94B05009B181A685B680892F5
:102DF0000993FFF77DFA02000B0030003900FFF75E
:102E0000E8F9089A099BFFF708FA0A900B91FFF777
:102E1000ABFA8246FFF768FA02000B000A980B999A
:102E2000FFF7D7F900229A4B0A900B91FFF74AFA65
:102E3000002800D1C0E001239C46E2445046FFF741
:102E400053FA02000B0008980999FFF72BFA0028A3
:102E500002D000239A4601354346002B69D008ABC7
:102E600017269C4608956644554614E001235B42AC
:102E700043440A2128009A46FEF770FF013430319E
:102E80003719397028000A21FEF768FF092D00D88C
:102E9000D5E0D0460500202CE8D10323249A134026
:102EA000012B00D100E10EAB9846249B01940393C3
:102EB000239B029343461EE0249B58460493239B86
:102EC00000960197039343460C9A029307994B4649
:102ED000FFF7E8FC17B03CBC90469946A246AB46CB
:102EE000F0BD249B5B070ED403226A4B2499019208
:102EF000039123990291009358464B460C9A0799E7
:102F0000FFF770FBE6E70422634BEFE73B0032007C
:102F100000200021FFF75DF9012306000F000D934B
:102F200045E7249B0393239B0293042301935B4B6C
:102F3000E1E72800FFF7DCF902000B003000390060
:102F4000FFF747F9524B002206000F00FFF7A4F9E4
:102F50000EAB984600280AD10022300039004C4BB5
:102F6000FFF7B0F9002802D1EB0700D50135202C7E
:102F700032D008AA94461723280063440A2101345A
:102F80001E19FEF7C3FE3031280031700A21FEF70A
:102F9000BDFE051EEBD10323249A1340012B00D163
:102FA00091E01F2C00D980E70D9B002B3BD02D23F7
:102FB00042461355013478E700220A980B99344BA6
:102FC000FFF76AF9002800D046E75346002B67D187
:102FD00001239C46E2443FE70323249A1340012B3C
:102FE00000D062E7239B002B00D15EE70D9B002BF6
:102FF00003D1249A0C33134202D0239B013B239329
:10300000239B9C42CDD208AB9C46172230236244BE
:103010001F2C06D82399013413558C42C1D0202C83
:10302000F8D1202441E7249B5B0721D4249B1B0774
:1030300000D43AE7202342461355013435E757467A
:10304000089D202C37D0220030214046002F08D088
:103050000132B154202A43D0D3431B191B18002B33
:10306000F6D10EAB98462E234146541C8B547EE776
:103070002B2342461355013417E7C046FFFFEFFFED
:10308000FFFFEF7F65CDCD4165CDCDC180C3001081
:103090000000E03F88C100108CC1001098C10010F2
:1030A000DB0700D4D8E693E7239B002B00D1FAE698
:1030B0000EAB98469AE70323249A1340012B00D0C5
:1030C000F1E60EAB9846239B002B00D169E78DE714
:1030D000249B0393239B029303230193064B0AE74C
:1030E0000323249A20241340012B00D0DBE6239BEA
:1030F0002024002BDCD1D6E694C10010F0B5DE46CA
:103100004E4657464546E0B59FB01C00289B934667
:103110000993CF4ACF4B894608901A60002900D105
:1031200016E2002320789A46002800D118E22600F3
:103130001D004C460AE02A006F1C5B46089D2100DA
:10314000A8473D000136307800287AD02528F2D1F2
:1031500010239A46083B9946043B9846023B0021BF
:103160009C46721C107816000300203BDBB2102B2B
:1031700003D8B94F9B00FB589F460300303B092BF7
:103180003CD900230A932A2800D171E000239846F5
:103190002E2847D00300683BDBB2122B1FD8AF4A62
:1031A0009B00D3589F46012301321943DAE7634657
:1031B00001321943D6E7434601321943D2E7534659
:1031C00001321943CEE74B4601321943CAE7707802
:1031D0006C2800D1BFE280235B0019430136030055
:1031E000253BDBB2532BA6D89D4A9B00D3589F4664
:1031F00080235B00707819430136F0E70027030055
:10320000B800C01901364000C018337830381A00B1
:10321000303A0700092AF3D90A901800002398468B
:103220002E28B7D180237078DB0019430300303B90
:10323000721C092B00D895E12A2800D1A6E11600BE
:10324000A8E7A146AA462C00D34503D801235B4238
:103250005B449A465B46524649460020089DA84773
:1032600020001FB03CBC90469946A246AB46F0BD3C
:10327000099B40CB0A96002E03DB50780993561C1D
:1032800084E72838014370420A9009935078561C0D
:103290007CE7782800D1D4E1582800D168E26F2873
:1032A00000D152E3622800D1D8E110230A009A43EA
:1032B0000B92692801D000F0A2FC0A230C934B0565
:1032C00000D4D5E101230B9A9A430B92692800D1CF
:1032D000CEE1642800D1CBE10B9A802311009B0042
:1032E00019408A461A4200D032E3802311005B0065
:1032F000194089461A4201D000F002FC13005B0617
:1033000000D510E30B9B1B0601D400F06EFC099B5B
:1033100004CB1204120C924609935346002B00D0A2
:1033200064E30B9A1033110099430B91520500D4BA
:103330005CE3002399460B9B06930A9B0593434647
:1033400004930C9B03930023DEE27078682800D17D
:1033500007E280230136194341E780239B00707800
:10336000194301363BE7462800D174E10722099B47
:103370000491073393430A9A19000392424602923A
:103380000CC908980092019309912A005B4621001C
:10339000FFF7C4FC01360500D5E6099B1A0008CAF0
:1033A0009146002B00D105E1212211438A460EA847
:1033B00084461F216144099500220F27A4460D0071
:1033C00002E0202A0CD00B003C001C4020003730CB
:1033D000092C00D807380132A85419090F2BF0D84E
:1033E0006446099DF0E08B0700D4D1E1099B2A00D7
:1033F00099466B1C98464B4601CB21009946089F85
:103400005B46C0B2B8470A9B9C466544012B00D876
:1034100090E2B2465E464746A846089D3A00330011
:10342000013721002020A8474745F7D1B3464B4636
:1034300056463D000993013685E62A006F1C5B461F
:10344000089D21002520A84701363D007BE6C046A7
:10345000FD30001098110020A0C10010E4C1001040
:1034600030C20010099B04CB994643460992002BB9
:1034700000D097E013789C46002B00D1B3E30223E1
:103480005B425A1C099B924618000A9F0B925044BB
:1034900002E0834200D169E15A780133002AF8D171
:1034A000099A0A979B1A0B9380230A00DB001A40A3
:1034B0000C92194204D00B9B434501D943460B9310
:1034C00002231A000A400D920B4200D184E16046AB
:1034D000002823D00C9B002B00D124E1A844C24635
:1034E000099B57465B1B9846089BB2462A0026005C
:1034F0005C469B4609E023003100551CD8474346F3
:10350000585D002800D13FE12A009742F3D1A3463D
:103510003D00340056460D9B002B69D00B9B0A9949
:10352000A846994264D98C466544ED1A089B4746E3
:103530009A46B04626005C463A0023000137310027
:103540002020D047AF42F7D1A346340046464FE093
:10355000D24B2078089300239A46002800D0E6E555
:10356000002471E6434606000A9F9800C018013205
:10357000400080191678030030003038303B0928AD
:10358000F3D93000984616000A9703E6099B0236E5
:1035900004CB9046D2434046D21710408046099350
:1035A0003078F7E513789C46002B00D11AE34346A8
:1035B000013B66E710220800904311321043824617
:1035C0000022490500D4F2E65346069308230593EA
:1035D00043460493102303930023029316AB0192F6
:1035E00000932A005B4621000898FFF763F8050066
:1035F0004B4601360993A6E5202302009A43472A49
:1036000004D180231B01194302239843452801D18B
:10361000202319430722099B0491073393430A9AF5
:1036200019000392424602920CC908980092019335
:1036300009912A005B462100FFF734F901360500A5
:1036400081E510230C930C230A009A430B924B053F
:1036500000D43BE636E62023194387E602230C9389
:103660000B910B996428EED10B9B5B0500D529E6E5
:103670000B9A802311009B0019408A461A4200D001
:10368000CEE0802311005B00194089461A4200D029
:10369000DBE113005B0600D51DE10B9B09991B06BE
:1036A00000D499E208C91BB2D8171A18424092B246
:1036B00009919246DA0F1292002B09D18023102231
:1036C0000B99DB000B4091430B91002B00D012E1D2
:1036D0000B9A6123920600D541230EA91F228C4626
:1036E000DBB262440A3B57461395A2464D460C9CFA
:1036F000B1460D9316000AE03033DBB20135735545
:10370000A74200D21CE1202D00D119E107002100C1
:103710003800FEF723FBCBB20929EDD90D9A944668
:103720006344DBB2EAE7099B5F465B1B98460A9B52
:10373000B3469A462600089C2A003B003100A04769
:1037400043460135585D0028F6D1534634000A93AC
:103750005E46BB46DFE6C0239B00B07819430236C5
:103760003DE5C023B0781943023638E50A979BE659
:103770000C230A009A4314331A4310230B920C9320
:103780004B0500D4A8E59DE5A34634005646C2E6A5
:103790000A9A012A00D82EE26B1E9F18089BB04699
:1037A000994626005C462A0023000135310020207E
:1037B000C847BD42F7D1A34634004646099B3A00AC
:1037C00001CB210098467D1C5B46089FC0B2B847DC
:1037D000434601360993B6E40B9A0A98531C90426B
:1037E00000D80AE243199B1A1F00089BB246260024
:1037F0005C469B462A002300013531002020D84733
:10380000BD42F7D10A9BA34601330B93099B3400B9
:103810001B7856469C466046002800D05AE6E7E6EC
:103820000722099B07339343013294469C44624626
:103830005F6809921A68FB171093119310981199F9
:10384000030053400E930B007B400F9394460E9A57
:103850000F9B121A8B410E920F93FB0F624612932D
:1038600000233A439A463DD00B9A6123920600D535
:1038700041230022DBB20EA90A3B8C4691460D93F0
:1038800043461F326244139515964D460E9E0F9F78
:10389000A14690460C9C14930FE0C046E125001011
:1038A0003032D2B2434601355A55BA4500D17CE197
:1038B000202D00D17CE106000F0022000023300003
:1038C0003900FEF789FAD2B2092AE9D90D9B9C4644
:1038D0006244D2B2E6E7FF23099904C913401A00F3
:1038E0000991E6E60B9A1033110099430B915205AA
:1038F000BAD5002399460B9B06930A9B0593434632
:1039000004930C9B0393129B02934B46019316ABBB
:103910002A00009321005B460898FEF7CBFE013693
:103920000500FFF710FCFF22099B02CB11408A46DD
:103930000993F2E44B46454609930136FFF703FC31
:103940004E465446A946139DD5E708230C9387E6B7
:103950000722099B07339343013294469C446246F5
:1039600009921A685B6810009A4613005246134386
:1039700007D10B9A1033110099430B91520500D5D2
:10398000D7E40B9A6123920600D541230022DBB2D3
:103990000EA90A3B8C4691460D9343461F32624462
:1039A00057461295A2464D460400B14690460C9EDD
:1039B00013930DE03032D2B2434601355A550023FD
:1039C000BB4200D1FDE0202D00D1FDE004000F003E
:1039D0003200002320003900FEF7FEF9D2B2092A96
:1039E000E8D90D9B9C466244D2B2E5E70B9A61236D
:1039F000920600D54123DBB20EA90A3B1F228C465A
:103A00000D93230062445446129517004D469A4682
:103A1000B1460C9E08E03033DBB201357B55B44231
:103A20000ED3202D0CD0040031002000FEF796F9B3
:103A3000CBB20929EFD90D9A94466344DBB2ECE787
:103A40004E465446A946129D75E4099B1A0008CAC1
:103A5000D91713925A184A409146DA0F1292002B46
:103A600008D1802310220B99DB000B4091430B916E
:103A7000002B2BD10B9A6123920600D541230EAA6D
:103A80001F279446DBB20A3B0D95674455460993C0
:103A9000A2464C46B1460C9E08E03033DBB20135FD
:103AA0007B55B4420ED3202D0CD0040031002000F1
:103AB000FEF754F9CBB20929EFD9099A9446634429
:103AC000DBB2ECE74E465446AA460D9D0B9B2A00FE
:103AD00006930A9B21000593434604930C9B089888
:103AE0000393129B013602935346019316AB009346
:103AF0005B46FEF7DFFD139B05000993FFF723FBF1
:103B0000099B04CB91461293002A08D180231022EE
:103B10000B99DB000B4091430B91002B2BD10B9A9F
:103B20006123920600D541230EAA1F279446DBB2DB
:103B30000A3B0D95674455460993A2464C46B1464B
:103B40000C9E08E03033DBB201357B55B4420ED316
:103B5000202D0CD0040031002000FEF7FFF8CBB27E
:103B60000929EFD9099A94466344DBB2ECE74E4643
:103B70005446AA460D9D0B9B2A0006930A9B2100E2
:103B80000593434604930C9B0898039300230293E8
:103B90005346019316AB00935B46FEF78BFD129BD9
:103BA000050009930136FFF7CEFAB44200D87FE64C
:103BB000149B4C460E960F97A9469846159E139D4A
:103BC00099E6A64200D8FEE6139B4E469846A946C3
:103BD0005446129DFFF7AFFB08C9D8171A18424088
:103BE000099166E500230B935EE4099B04CB9246A2
:103BF0000993FFF792FB2F00E0E50B930BE6063BE2
:103C00000C932EE500B585B003910121029000933D
:103C1000034813004A4202A9FFF770FA05B000BD3D
:103C20009528001010B5094A0300146884B0002CD0
:103C300008D0012200910648524203A9A047012062
:103C400004B010BD00F0AAF90020F9E79811002097
:103C50008528001000BEFDE7094A0300106800280F
:103C600005D00849C3188B4207D81360704706482F
:103C70000449C31810608B42F7D901204042F5E790
:103C80009411002000000420A820022010B5FFF7A6
:103C9000E1FFC04670B5FDF747FF074C074B9C425C
:103CA00009D2013B1D1BAD080135AD002D1908CC13
:103CB0009847AC42FBD170BDF4BF001000C00010AB
:103CC000030010B508001B681100984710BDC046DE
:103CD000F8B54746CE4680B5437D07000D00160077
:103CE000002B37D000240020002A1EDD4B1E9846F2
:103CF0001B4B9946002C2BD043461B5D0D3B5A4273
:103D00005341DBB22A5D0A2A13D00134A642F1DC0A
:103D1000864203DD311A3B6828189847AD19013DEA
:103D20002B780D3B5A4253413B750CBC904699464B
:103D3000F8BD002BE9D1A04203DA211A3B6828180C
:103D40009847484602213B68013498472000DDE748
:103D50003B7DD7E70368110028009847E5E7C04698
:103D6000D0C30010F0B5C6460C000968060000B5C7
:103D7000802906D04B1C23606418267104BC904631
:103D8000F0BD0F4B1D68002D16D0231D98460D4F1A
:103D900002E02D69002D0FD02B68002BF9D03B6875
:103DA000002B01D0AB42F4D1280041462268FFF736
:103DB0008FFF2D69002DEFD101230021DBE7C046E5
:103DC0008C11002090110020F0B5DE4657464E467B
:103DD0004546E0B585B017001C0006000D00FDF754
:103DE0003DFC0023314A12184B41002B59DB30496E
:103DF00008008A4608F0C0F801906B1C03D130001F
:103E000007F0BAFE0500002C26D12A4B98462A4B13
:103E10001C68002C15D0002F21D1284F02E0246906
:103E2000002C0ED02368002BF9D03B68002B01D06A
:103E3000A342F4D120002A003100C0472469002C9D
:103E4000F0D1019B002B28D1280005B03CBC904646
:103E50009946A246AB46F0BD194B9846D7E7174B9B
:103E6000994602ABDF1D0A239B4602E02469002C21
:103E7000E7D02368002BF9D04B461B68002B01D0FC
:103E8000A342F3D12A0031002000C0475B46012243
:103E9000390020003B70C047E8E7504608F03CF886
:103EA000D2E70122074B5242A1E7C04640420F0031
:103EB000F00D0020C13C00108C110020901100205A
:103EC000D13C0010FFFFFF7F0A4A1368002B05D189
:103ED0000CE01A001B691032002B07D09842F8D171
:103EE000002902D103691360016170470029FCD0E9
:103EF0001060FAE78C11002010B500F0AFF9012036
:103F000010BDC046F0B5CE46474680B583B06B467F
:103F10000500DE1D3070FDF7A1FB00231A4A1218C0
:103F20004B41002B2CDB19490800884608F024F887
:103F3000174B07001C68002C16D0164B994602E060
:103F40002469002C10D02368002BF9D04B461B6845
:103F5000002B01D0A342F3D1200001223100FFF752
:103F6000B7FE2469002CEED1002F05D1280003B044
:103F70000CBC90469946F0BD404607F0CDFFF5E7F2
:103F80000122054B5242CEE740420F00F00D0020C7
:103F90008C11002090110020FFFFFF7F70B50400FE
:103FA00007F0EAFD01230100050001222000FFF7D0
:103FB0000BFF084B1C68002C06D06368002B05D053
:103FC00098472469002CF8D1280070BD2469002C82
:103FD000F3D1F9E78C110020F0B5CE46474680B505
:103FE000A5B004000D00FDF739FB00232A4A121882
:103FF0004B41002B49DB294E300007F0BDFF002369
:104000000700039322002B00254803A9FFF7FAFDC0
:10401000039B8046002B14D1224B1C68002C06D039
:104020006368002B0BD098472469002CF8D1002F2F
:1040300027D1404625B00CBC90469946F0BD246976
:10404000ECE7184B1D689946002D22D0164C02E073
:104050002D69002D11D02B68002BF9D02368002B7F
:1040600001D09D42F4D1039B28001A0004A90193BA
:10407000FFF72EFE2D69002DEDD14B4603951C68F0
:10408000CCE7300007F048FFD3E70122074B52424C
:10409000B1E70395CBE7C04640420F00F00D00208A
:1040A000653D00108C11002090110020FFFFFF7F64
:1040B0000FB400B583B004A901C90191FFF78CFFCB
:1040C00003B008BC04B01847F0B50D1E15DD0E4B4B
:1040D0000D271A680D4B4519D31859424B410C490D
:1040E0005B005E5E20210478A64207D093691942E6
:1040F000FCD101301460A842F5D1F0BD936919429A
:10410000FCD11760F2E7C0465C1400200080FCBFC1
:104110006415022030B50500002924DD002010249C
:104120001A4B013D1A6893691C4217D101309369FB
:104130001C42FCD113682B548142F4D1144B1B68F0
:10414000002B0AD050239363516B183B0B4011494D
:104150008C4662441360002814D030BD0C4B1B68A1
:10416000002BEFD1F7E70A4B1B68002B0AD0502237
:10417000064B1B689A63596B183A0A4005498C46EE
:1041800063441A6003204042E7E7C0465C14002005
:104190004C11002034100000064B10B51B68002B9A
:1041A00006D00021044A12689163044A10689847B7
:1041B00010BDC0464C1100205C140020501100209E
:1041C0000822034B19688B691A42FCD17047C0461C
:1041D0005C14002070B51B4E1B4B32680500D318D1
:1041E0005842434114331C00002D04D0174B1A6869
:1041F000002A11D070BD154E3368002BFAD0002173
:1042000020009563FCF780FA20001149FCF7AEFB13
:10421000104B35601D60EDE71D600E4B20001960EE
:104220000B49FCF797FA01212000FCF76DFA5022A8
:1042300033689A63596B183A0A4007498C466344BD
:104240001A60D7E75C1400200080FCBF4C110020EE
:104250009941001050110020341000000D4B10B592
:104260001B780D4B0D4C1B780D4B02211B780D4B11
:1042700000202360FCF788F802210120FCF784F875
:10428000E12120684902FDF72DFA01210648FFF7D8
:104290001BFE10BD143D0410183D04105C140020DA
:1042A0001C3D04100040034060050020014B1860D5
:1042B0007047C0462010002010B50A0001000248D7
:1042C00003F07CF810BDC0466C170220014B186843
:1042D0007047C0462010002010B582B0FFF7F6FFEF
:1042E000002807D003F052FB03000020002B12D05F
:1042F00002B010BD684603F043FF114C6946200030
:1043000003F044FF002804D02000FFF7CFFF200077
:10431000E8E70138ECE7FFF7D9FF040003F052FBB0
:10432000074B9C4202D001204042E1E72368200075
:104330005B6B98470020FFF7B9FF01204042D7E7A9
:10434000F80D002010B5024800F00CF810BDC04672
:104350004C14002010B508220149FEF73BF910BDAE
:104360004C14002030B5002589B00400092200213A
:1043700001A80095FEF728F90922002105A8049557
:10438000FEF722F94B236A466846137004A90D22F2
:1043900007F0BAFD1521082220006944FEF71AF93A
:1043A00009B030BD10B50520FDF716FB030C6420E5
:1043B00003495843FDF7D2FC0338FDD210BDC04677
:1043C0009A3B0000184B70B5C4580500002C14D05F
:1043D0002168002906D06368A268144803F0B0F988
:1043E000002323600C202056002810DA0D202056D0
:1043F000002803DA00220C4BEA5070BD03F0D8F914
:104400000D20205603F0BCF9FF236373F2E703F09D
:10441000CFF90C20205603F0B3F9FF230D202373AE
:1044200020560028E6DBE9E74C08000038C40010FD
:10443000F0B5C6463F4C404B00B5C45000230621A2
:104440002200012684B02360013BA3810191123137
:104450000500009139482100231D0832029603F01F
:10446000ADF800285FD0636835485A1D1203DB01A0
:104470001A43344B01681A4030238B43324990462B
:104480000B600368300098430860802120682F4B40
:104490004904C3181960A16880224B005B18DB0037
:1044A000C3181F009202C8373A60C0229202BA6055
:1044B00042467A60264ADC331A6001231D220096A8
:1044C00003F01EF8234A236894466344190D06310D
:1044D0001820C9B2FBF758FF012200211820FBF772
:1044E0006DFF01211820FBF783FFA2680020530015
:1044F0009B182268DB009446174A6344D8331A603D
:1045000003F046F92073002003F042F9237B40B208
:10451000043760737F2B06D8002804DB002004B02A
:1045200004BC9046F0BD2800FFF74CFF0620404237
:10453000F5E7C0463C1100204C08000038C40010CC
:1045400078C00140FFFFFF9F78D001403820000075
:1045500018771C240000E0AF01E00000F0B54E46E3
:104560004546DE465746E0B589461600984687B070
:10457000002900D11FE1934A934B9446C458182058
:1045800023686344190D0631C9B2FBF7FDFE8D4A5D
:10459000236894466344190D06311D20C9B2FBF708
:1045A000F3FE012200211D20FBF708FFD02380220B
:1045B0001B0692049A614346002B00D11CE14B4636
:1045C000002B00D1F5E001252A00CC27A168BC46CC
:1045D0008A4020687D4F0368934303604B005B185B
:1045E000DB00C218944462461268C318924662689F
:1045F000053212039346524617405A463A436768BB
:10460000FF013A4367463A60714A2F009446802280
:10461000634412061A601A6080220023520400923A
:10462000019302F01BFF2800A16823680A1D904037
:104630000492802292019A18106008000830874086
:1046400088001760F2001818013A02614A005218F7
:10465000D200604F9A18D8321760109FBF1BFF001E
:10466000013F07615C48676810601F203840106098
:104670000C22A256594F93462A005846A025824044
:104680005748ED052A505A469201944680206744C7
:1046900040043A680242FCD160460D270122039093
:1046A000E7574F48BA402A50A022D20592464B4ABB
:1046B00003989446BD018022AA446544844652046E
:1046C00028681042FCD1624603923E4AFF029818C5
:1046D0005A46000DC5004348D2020240A02005956D
:1046E0004D19ED032A43404DC0051543049A8446F5
:1046F000AB4695004A4603986044026084465819C8
:10470000814660464A464260B20882605A46C260AC
:104710003448109A3840059F1035B946049F5D19FA
:10472000BC46E1444F46FF033843304F38439708B7
:10473000B208BA1A57463D604546AD197D60BA6069
:1047400001228A40F860186802431A600C22284B44
:1047500080219C46A25649049201624413680B4290
:10476000FCD10D22224B80219C46A2564904920185
:10477000624413680B42FCD1002132004046FDF731
:1047800023FFA16823684A005218D2009B18194AD7
:10479000D8331A60D02380221B0692045A61FFF797
:1047A00001FE002007B03CBC90469946A246AB46AD
:1047B000F0BDC14607E74346002B00D0DBE60520ED
:1047C0004042EFE70000E0AF4C0800007F00FEFF32
:1047D000D010000020600000406000000C0000507D
:1047E00044040000FD7F00FF190040002900400044
:1047F0001000005003A000004B46002BC1D0012741
:104800003A00CC25A168AC468A4020684D4D03682B
:10481000934303604B005B18DB00C218944462466C
:104820001268C318924662680132120393465246D8
:1048300015405A462A436568ED012A4365462A60B9
:10484000414A3D0094468022634412061A601A6071
:104850008022002352040092019302F0FFFD3A00EF
:10486000A0682168031D9A409A4680239B01CB18BB
:104870001A6002000832954082001D60F3008A1819
:10488000013B136143001B18DB00304DCB18D833BC
:104890001D60454615612E4A65681A601F222A4030
:1048A0001A600C23E356A0229F409C46294BD20558
:1048B000D75063469B019B4617008025264A5F44DC
:1048C0005A446D0413682B42FCD16246D2029446CE
:1048D000224A234B904662464546CB181B0DDB000F
:1048E0001B182A40DB0313431E4AB60813434A46EB
:1048F0003A60524695004D197D60BE60FB60012311
:1049000083400D68184A2B430B6080215A444904A8
:1049100013680B42FCD10122A368216818339A4026
:104920008A608B681A42FCD00122A16820688A4004
:10493000036893430360002318220093013302F0BD
:10494000DFFD1EE77F00FEFFD010000020600000AA
:1049500040600000440400000C000050FD7F00FF98
:104960000000E0AF190040001000005010B5172003
:10497000FBF7B0FDD024802324061B040022012174
:1049800063621720FBF71AFD1820FBF7A3FD8023B5
:104990005B0463621920A361FBF79CFD80239B04E9
:1049A0006362636110BDC04670B5D02480252406C3
:1049B0002D04A5611420FCF78BFD6561FA20FCF73E
:1049C00087FD1820FBF786FD80235B04A36270BD82
:1049D000002300B585B003930A4BD2021A40082386
:1049E00009070A4308490093114302AB49BA04225C
:1049F00002910021FFF7B2FD002801D1039840BACF
:104A000005B000BD00F8FF0F0400004010B588B0ED
:104A1000012914D0144BD2021A40082309070A4373
:104A2000124902AC0A43029200930422230000219F
:104A3000FFF794FD0123002812D008B010BD0A4BE7
:104A4000D2021A400A4B02AC1A4318230292009376
:104A5000042223000021FFF781FD0028EDD105236A
:104A60009B00E058E9E7C04600F8FF0F0400004053
:104A70000400005010B588B0012914D0144BD202A4
:104A80001A40082309070A43124902AC0A4302925A
:104A90000093042223000021FFF760FD012300287A
:104AA00012D008B010BD0A4BD2021A400A4B02AC19
:104AB0001A43182302920093042223000021FFF7D7
:104AC0004DFD0028EDD105239B00E058E9E7C046E5
:104AD00000F8FF0F020000400200005010B588B03F
:104AE000012914D0144BD2021A40082309070A43A3
:104AF000124902AC0A4302920093042223000021CF
:104B0000FFF72CFD0123002812D008B010BD0A4B7E
:104B1000D2021A400A4B02AC1A43182302920093A5
:104B2000042223000021FFF719FD0028EDD1052301
:104B30009B00E058E9E7C04600F8FF0F0100004085
:104B400001000050F0B55BBAD64646464F46C0B5A8
:104B5000724CD202224009070A43714984B01143C2
:104B600002AA924649BA6F4A039394466E4B029149
:104B7000C4581820236801266344190D0631C9B2B0
:104B8000FBF702FC674A236894466344190D06311B
:104B90001D20C9B2FBF7F8FB012200211D20FBF705
:104BA0000DFCD02380221B0692049A613200CC2592
:104BB000A168AC468A4020685C4F03689343036059
:104BC0004B005B18DB00C218944462461268C3189D
:104BD0009046454662682F400132656812033A43A9
:104BE000EF0165463A432A60514A370094468022D5
:104BF000634412061A601A60802200235204009255
:104C0000019302F02BFCA1688023081D87402268D5
:104C10009B01D3181F600F0035000837BD401D6091
:104C20003F238F00D7193B614B005B18DB00414DE0
:104C3000D318D8331D6000253D613F4F65681F6064
:104C40001F272F401F600C23E356A0279E409C4641
:104C50003A4BFF05FE5063469E01394BF7199846C3
:104C60008023B0445B0445462D681D42FBD1654658
:104C7000ED02AC46334D2B4BA846D3181B0DDB0081
:104C80005B18DB039946654643461D402B004D46A5
:104C90001D432B002C4D80002B43554610183D60C2
:104CA00078600220B860FB6001238B4010680343EA
:104CB0001360264B9C46802366445B0432681A428C
:104CC000FCD10123A2681832934022689360916856
:104CD0001942FCD00122A16820688A4003689343EE
:104CE0000360002318220093013302F009FCA1683D
:104CF00023684A005218D2009B18154AD8331A600C
:104D0000D02380221B0692045A61FFF74BFB002040
:104D100004B01CBC90469946A246F0BD00F8FF0FB7
:104D2000040000C00000E0AF4C0800007F00FEFF60
:104D3000D01000002060000040600000440400002B
:104D40000C000050FD7F00FF1900400010000050D3
:104D500003A00000F0B5D6464F464646C0B5784C95
:104D6000D20222400C072243764C84B0224302AC8C
:104D7000A24602920393012909D1082472494450A2
:104D800008394250714A8350714B8268C250714A4F
:104D9000714B9446C4581820236801266344190DAA
:104DA0000631C9B2FBF7F0FA6A4A236894466344B5
:104DB000190D06311D20C9B2FBF7E6FA01220021C8
:104DC0001D20FBF7FBFAD02380221B0692049A6178
:104DD0003200CC25A168AC468A4020685F4F03684A
:104DE000934303604B005B18DB00C2189444624697
:104DF0001268C3189046454662682F4001326568C4
:104E000012033A43EF0165463A432A60544A370099
:104E100094468022634412061A601A60802200239E
:104E200052040092019302F019FBA1688023081D2F
:104E3000874022689B01D3181F600F003500083798
:104E4000BD401D603F238F00D7193B614B005B18AD
:104E5000DB00444DD318D8331D6000253D61424F1F
:104E600065681F601F272F401F600C23E356A02793
:104E70009E409C463D4BFF05FE5063469E013C4BC9
:104E8000F71998468023B0445B0445462D681D42BF
:104E9000FBD16546ED02AC46364D2E4BA846D318E5
:104EA0001B0DDB005B18DB039946654643461D403E
:104EB0002B004D461D432B002F4D80002B435546A4
:104EC00010183D6078600220B860FB6001238B40C1
:104ED000106803431360294B9C46802366445B049F
:104EE00032681A42FCD10123A2681832934022682A
:104EF000936091681942FCD00122A16820688A4021
:104F0000036893430360002318220093013302F0E7
:104F1000F7FAA16823684A005218D2009B18184A71
:104F2000D8331A60D02380221B0692045A61FFF7FF
:104F300039FA002004B01CBC90469946A246F0BD48
:104F400000F8FF0F040000C05808000054080000DB
:104F50005C0800000000E0AF4C0800007F00FEFF8E
:104F6000D0100000206000004060000044040000F9
:104F70000C000050FD7F00FF1900400010000050A1
:104F800003A00000F0B5D6464F464646C0B5784C63
:104F9000D20222400C072243764C84B0224302AC5A
:104FA000A24602920393012909D108247249445070
:104FB00008394250714A8350714B8268C250714A1D
:104FC000714B9446C4581820236801266344190D78
:104FD0000631C9B2FBF7D8F96A4A2368944663449C
:104FE000190D06311D20C9B2FBF7CEF901220021AF
:104FF0001D20FBF7E3F9D02380221B0692049A615F
:105000003200CC25A168AC468A4020685F4F036817
:10501000934303604B005B18DB00C2189444624664
:105020001268C3189046454662682F400132656891
:1050300012033A43EF0165463A432A60544A370067
:1050400094468022634412061A601A60802200236C
:1050500052040092019302F001FAA1688023081D16
:10506000874022689B01D3181F600F003500083766
:10507000BD401D603F238F00D7193B614B005B187B
:10508000DB00444DD318D8331D6000253D61424FED
:1050900065681F601F272F401F600C23E356A02761
:1050A0009E409C463D4BFF05FE5063469E013C4B97
:1050B000F71998468023B0445B0445462D681D428D
:1050C000FBD16546ED02AC46364D2E4BA846D318B3
:1050D0001B0DDB005B18DB039946654643461D400C
:1050E0002B004D461D432B002F4D80002B43554672
:1050F00010183D6078600220B860FB6001238B408F
:10510000106803431360294B9C46802366445B046C
:1051100032681A42FCD10123A268183293402268F7
:10512000936091681942FCD00122A16820688A40EE
:10513000036893430360002318220093013302F0B5
:10514000DFF9A16823684A005218D2009B18184A58
:10515000D8331A60D02380221B0692045A61FFF7CD
:1051600021F9002004B01CBC90469946A246F0BD2F
:1051700000F8FF0F020000C05808000054080000AB
:105180005C0800000000E0AF4C0800007F00FEFF5C
:10519000D0100000206000004060000044040000C7
:1051A0000C000050FD7F00FF19004000100000506F
:1051B00003A00000F0B5D6464F464646C0B5784C31
:1051C000D20222400C072243764C84B0224302AC28
:1051D000A24602920393012909D10824724944503E
:1051E00008394250714A8350714B8268C250714AEB
:1051F000714B9446C4581820236801266344190D46
:105200000631C9B2FBF7C0F86A4A23689446634482
:10521000190D06311D20C9B2FBF7B6F80122002195
:105220001D20FBF7CBF8D02380221B0692049A6145
:105230003200CC25A168AC468A4020685F4F0368E5
:10524000934303604B005B18DB00C2189444624632
:105250001268C3189046454662682F40013265685F
:1052600012033A43EF0165463A432A60544A370035
:1052700094468022634412061A601A60802200233A
:1052800052040092019302F0E9F8A1688023081DFE
:10529000874022689B01D3181F600F003500083734
:1052A000BD401D603F238F00D7193B614B005B1849
:1052B000DB00444DD318D8331D6000253D61424FBB
:1052C00065681F601F272F401F600C23E356A0272F
:1052D0009E409C463D4BFF05FE5063469E013C4B65
:1052E000F71998468023B0445B0445462D681D425B
:1052F000FBD16546ED02AC46364D2E4BA846D31881
:105300001B0DDB005B18DB039946654643461D40D9
:105310002B004D461D432B002F4D80002B4355463F
:1053200010183D6078600220B860FB6001238B405C
:10533000106803431360294B9C46802366445B043A
:1053400032681A42FCD10123A268183293402268C5
:10535000936091681942FCD00122A16820688A40BC
:10536000036893430360002318220093013302F083
:10537000C7F8A16823684A005218D2009B18184A3F
:10538000D8331A60D02380221B0692045A61FFF79B
:1053900009F8002004B01CBC90469946A246F0BD16
:1053A00000F8FF0F010000C058080000540800007A
:1053B0005C0800000000E0AF4C0800007F00FEFF2A
:1053C000D010000020600000406000004404000095
:1053D0000C000050FD7F00FF19004000100000503D
:1053E00003A00000F0B5DE1C1D000323040083B001
:1053F0009E43012924D004202133164FD2023A4083
:1054000009072A430A4380210430C90580000A4362
:105410002018043642600021009604222000E31880
:10542000FFF79CF8061E0FD12100089B28319942F6
:1054300003D02A001800FDF7CDF8300003B0F0BD0E
:10544000002010361133D8E701000348FEF730FE84
:10545000F3E7C04600F8FF0F1CC40010F0B5454646
:105460005746DE464E46E0B58DB002AF9846BA606C
:10547000DA1C03239A430500FA60022925D028008C
:105480003B6D2830984248D0434609071943BB6812
:10549000DA02294B1A40C02311431B0619436962E3
:1054A0004246396DFDF796F829000023FA68280076
:1054B000043224310093FFF751F8BD460BB03CBCD9
:1054C00090469946A246AB46F0BD1C4B1C4C9B46F1
:1054D00008239A4618339946796001E0013C16D3B7
:1054E0005B463B61534600931023042200212800B1
:1054F000FB186E46FFF732F8002800D178694B465A
:10550000B5460342EAD07B681900002CB7D10D489C
:10551000FEF744FD06204042CFE7BB680907DA02E8
:10552000054B1A4043460B4313431A00C0231B0686
:105530001A436A62B8E7C04600F8FF0F0440004013
:10554000E703000064C60010836870B5CC0B05004B
:10555000E403A3420BD063401A0E19D1FF221204B8
:1055600013420CD1FF221202134201D1AC6070BD74
:10557000012128000A4A230AFFF71CFEF6E7230C44
:1055800001212800074AFFF715FEAB686340E9E7F1
:10559000230E0121044AFFF70DFEAB686340DDE7EF
:1055A0000A0001000B0001000C000100F0B5CE461E
:1055B0004746033083089C4680B58E1E002B1DD0C5
:1055C0000B0033435B0759D16346013B0A2B55D986
:1055D000C3089846424637000B00D200881830CBEB
:1055E00030C79842FBD14346B41858008A18844506
:1055F00004D0538810881B04034323600800738879
:105600000A301A0A1B02134373808B1C1B688A1D05
:105610001BBA7360126812BAB260006800BAF06018
:10562000452B04D030000CBC90469946F0BD082AAA
:10563000F8D10B000A000C00B232AE331B881068A0
:105640002E3425691A18AA4224D83A31C9180818E4
:10565000002381422AD29C460025294F04E0DD2AFE
:105660002FD0C918884219D94B780233CA189042F2
:10567000F7D30A78302AF2D10D00F2E76346320000
:1056800098003018938854881B04234308C2904222
:10569000F8D1B3E701235B42B360C3E7002D2BD001
:1056A000062304226146002900D11300A28BD206F2
:1056B00001D5012213438422B15CB1520432B354A8
:1056C000B0E78A1C91468A7890463A789045C8D1CE
:1056D0004A46527890467A789045C2D14A469278A6
:1056E0009046BA789045BCD14A46D2789046FA782E
:1056F0009045B6D18C46B4E702230022D2E7C046DB
:10570000A4C60010F8B5CE4647460500894680B5C8
:10571000002932D001230121204AFFF74BFD01234C
:10572000012128001D4AFFF745FD03230327984662
:10573000012640240BE0012002F0BEF9013C3300B9
:1057400001212800154AFFF735FD002C10D001215A
:105750002800124AFFF7C2F90028ECDB3B000340A7
:105760004345E8D1FF28E6D00CBC90469946F8BDE9
:1057700049460B48FEF79CFCF6E700230121074A47
:10578000FFF718FD002301212800044AFFF712FD4E
:105790000023012798460026CBE7C0461F000100E2
:1057A0004CC40010F0B5D6464F464646C0B5C37C43
:1057B00005000F00924682B0002B04D1006801F072
:1057C000D7FC002863D0280001F0D8FCAB7C002B6C
:1057D00005D101212800FFF795FF0123AB74EB7C75
:1057E000002B61D0FA24A40002E0013C002C4ED032
:1057F000082200212800FFF709F9431CF5D0C30552
:1058000043D5C02203035B0D591ED200914200D341
:10581000B1E0820700D5AEE02C002834002202213E
:1058200028000094FFF7DEFD002826D1298D6A8D1F
:10583000002928D00123EB74634B9C460B00534096
:10584000634500D09EE0D24392B2914200D09FE0E7
:105850000B2900D8A2E0237AAB730F23627913409F
:10586000022B17D90C2900D1A4E0012B58D0022B10
:1058700035D0002B45D00B20404202B01CBC9046D6
:105880009946A246F0BD002AD4D10023EB74012032
:105890004042F2E7627A944666466A7BB21AD2B216
:1058A000142ADFD86E73DDE7042200212800FFF7F9
:1058B000E1F883B29846454B000499461B88040CD6
:1058C000434502D0862323424AD14346002B4CD184
:1058D0004B4642461A80A30600D583E7D7E7102936
:1058E00065D9E2790220A218D3789B000433D3183B
:1058F0001C1B091B94785246E4072143396013604E
:10590000BBE71B295CD9E3792D8AE3185A899542B4
:105910004AD1524610331C1B0C1B3C601360ACE791
:1059200010294AD9E379E318DA78920004329B18F7
:105930001A7B1C1B091B882A33D15A7B6C2A30D155
:10594000DA7C002A27D11A7D102A24D15A7D182A00
:1059500021D15246183918333960012013608CE781
:1059600021001B48FEF7A4FBAFE70422002128001A
:10597000FFF708FBACE7012301212800154AFFF7D8
:1059800019FC82E71448FEF793FB0120404274E7BC
:105990000220404271E70A2040426EE70320404265
:1059A0006BE70920404268E70620404265E7072090
:1059B000404262E7042040425FE7082040425CE743
:1059C0000520404259E7C046FFFF00005E15022057
:1059D00070C400100D0001009CC40010F0B5DE463C
:1059E00057464E4645460400E0B585B099468A467E
:1059F000934601F0C3FBA37C002B05D101212000BD
:105A0000FFF780FE0123A374A37B002B24D02E4E2E
:105A10002E4FB36A98460EE0A17B002903D1237B69
:105A2000627B9A421CD14346ED1ABD4243D8FA200C
:105A3000800002F011F8200003AA02A9B56AFFF75E
:105A4000B1FE0128E8D103990298FFF7AFFD0100EC
:105A5000200001F099FBDFE7237B627B9A42D6D0DE
:105A60005A4649460C3292B20A80D2430B714A80A0
:105A70004A46514600205171023990714A424A41CA
:105A8000022152420A4049460C320133CA71088150
:105A9000488123735B4603220F3393430091002216
:105AA00002212000FFF7DAFC05B03CBC9046994685
:105AB000A246AB46F0BD637B227B0548FEF7F8FAB1
:105AC00002204042F0E7C0460040054040420F003F
:105AD000C8C40010F0B557464E464546DE46E0B510
